:10097F000212012C0216000202100000021404F6EB
:06098F0004180000000046
:1007A300E4F59DF5BD75BC8012000EE4FF120A4806
:1007B3008E108F11AC14AD15E41202C9C004C0052C
:1007C300C006C007AC10AD11E41202C9A804A90504
:1007D300AA06AB07D007D006D005D0041202278F94
:1007E3001B8E1A8D198C18759DFFE4F5BD75BC80A1
:0307F30002000EF3
:050BBA008E168F1722CA
:050BBF008E128F1322CD
:1009E80075160075170212001D8E518F527516006C
:1009F80075170412001D8E538F547516007517064F
:100A080012001D8E558F567B007A007951020738E7
:06001D00AF17120A482291
:100A4800EF4488F5BC00000000E5BC30E4FB53BC73
:100A5800EFE5BDFF7E007802C333CE33CED8F9FF71
:080A6800E5BE5403FDEF4DFF54
:010A70002263
:10099500103E000000000000000000000000000004
:0809A5000000013C05013D00CA
:100B5F00E5A2543FF5A2759850758E40E4F589755E
:0A0B6F008BC0758DFED28ED2AC2231
:030023000209438C
:10094300C0E0C0D075D008309826743E253DF8A687
:1009530099743E253DF8E6B44002D20230020F05F9
:100963003DE53C14B53D07C202753D00D200C29877
:0C097300309904C299C201D0D0D0E0320B
:100B270090000112039CFF1203836FFF90000212D3
:0D0B3700039C6FFF90000312039C6FFF22D0
:10061D00C200E540FE7C00E42541F550EC3EF54F6F
:10062D00D2ACE53F249F606814606C2432B40A009C
:10063D00506C90064D75F003A4C58325F0C58373EA
:10064D0002066B020672020679020680020691020C
:10065D00068702068E02069402069702069AAF508E
:10066D00AE4F020BC4AF50AE4F020A96AF50AE4F15
:10067D00020ABBAF50AE4F020AE0AF50AE4F0209B7
:10068D00B40209E8020B9D020BA8020BB1020BCCC0
:0E069D00AF50AE4F020BBFAF50AE4F120BBAB4
:0106AB00222C
:030BC900A2002265
:080003002001FDD2018F9922BA
:100A71008B4F8A508951AB4FAA50A9511203836001
:100A8100130551E5517002055014F9120383FF1249
:050A9100000380E222D9
:100738007557407558501203C9FDACF0ECF559AF28
:10074800058F5A9000021203F4FDACF0ECF55BAF94
:10075800058F5C9000041203F4FDACF0ECF55DAF7E
:10076800058F5E7B007A007957120B278F5FAF5792
:10077800120003AF58120003AF59120003AF5A1208
:100788000003AF5B120003AF5C120003AF5D120001
:0B07980003AF5E120003AF5F0200031E
:0208C500AA0681
:1008C7007551407552508A538F548C55AF058F56CA
:1008D7007B007A007951120B278F57AF5112000313
:1008E700AF52120003AF53120003AF54120003AF0D
:0E08F70055120003AF56120003AF5702000364
:100A1800C2B553B1DF43B220C28CD2A9D2B953892F
:100A2800FC438E805389FB438F01E4F58CF58AD211
:100A38008CD2AF7562077563D0AF63AE62020B44A8
:100B4400EF24E0FDEE34B1FCC3E49FFFE49EC2AFAA
:0A0B5400F5648F658C608D61D2AFEF
:010B5E002274
:03000B00020B796C
:100B7900C0E030B509E560F58C85618A8007E564D8
:080B8900F58C85658AD0E0328D
:0609AD0002210000C1035D
:060519008B4F8A5089514E
:10051F00C3E5389DF553E5379CF55290000C120357
:10052F00F4FFAEF090000E1203F42FFFE5F03EFE45
:10053F00E5532FFFE5523E9000108FF012042C90E0
:10054F00000C1203F4FFAEF0C3E5539FF555E552CF
:10055F009EF55490000EEE8FF012042C90000CE5D7
:10056F00528553F012042CAF53AE52120B91AB4F76
:10057F00AA50A9519000161203F4FDC3EF9DEE95FA
:10058F00F0900010500AE4F5F012042CE4FEFF2264
:10059F001203F4FDACF0EC1202C9AB4FAA50A951F3
:1005AF0090000412048712011EC004C005C006C0CB
:1005BF0007AC52AD53EC1202C9AB4FAA50A951125E
:1005CF00046712011ED003D002D001D00012002DFB
:1005DF00C004C005C006C007AB4FAA50A951900078
:1005EF0008120487C000C001C002C003AC54AD554F
:1005FF00EC1202C9D003D002D001D00012011ED0DC
:0D060F0003D002D001D00012002D12030212
:01061C0022BB
:0B0B9D00AD36AC35AF38AE370208C5EE
:1007F60012001DAC06AD077B007A0079231205199D
:10080600EF2536F536EE3535F535D3E5369400E584
:1008160035648094CE400675354E753600C3E53690
:100826009420E53564809480500675350075362031
:07083600AF36AE35020B44A2
:100905007E007F187D007B007A0079231204B7757D
:1009150026CD7525CC75244C75233EE4F52AF5299D
:10092500F528F527F52EF52D752C40752B40F53559
:0E093500F536753711753894F539753A0A2282
:050BC4008E378F38227E
:1009B4008E218F22D3E5229400E521944E400675C2
:1009C400214E752200C3E5229420E52194005006AF
:1009D400752100752220AF22AE21120B44852135EA
:0409E4008522362210
:100A9600EF640F7003EE6427601AAD07AC06E4122C
:100AA60002C9E4FBFA797A78441202278F268E254A
:050AB6008D248C2322B9
:100ABB00EF640F7003EE6427601AAD07AC06E41207
:100ACB0002C9E4FBFA797A78441202278F2A8E291D
:050ADB008D288C27228C
:100AE000EF640F7003EE6427601AAD07AC06E412E2
:100AF00002C9E4FBFA797A78441202278F2E8E2DF0
:050B00008D2C8C2B225E
:090BA800C2037F207E00020B4411
:090BB100C2037F007E4E020B44DA
:030BCC00D203222F
:030BCF00A203225C
:100884005561727420496E6974204F4B20210D0A02
:100894000041444320496E6974204F4B20210D0AC6
:1008A4000050574D20496E6974204F4B20210D0A8A
:1008B4000050494420496E6974204F4B20210D0A91
:0108C4000033
:10083D00D2AF120B05120B5F7BFF7A087984120A77
:10084D00711207A37BFF7A087995120A71120A18A3
:10085D007BFF7A0879A5120A711209057BFF7A08C8
:10086D0079B5120A71120BC9500312061D120BCF66
:07087D0050F31207F680EEB4
:100B0500E4F594F593F592F591F596F595F5B2F52D
:100B1500B1F5B4F5B3F5CAF5C9F5CCF5CBF5E2F504
:020B2500E122CB
:0E000E0000007F057E347DC3DDFEDEFCDFFAE0
:01001C0022C1
:1000260002036EE86480F8E933E83360110460F097
:10003600ED33EC337009E8FCE9FDEAFEEBFF220440
:1000460060DED3EB9FEA9EE99DE8C2E78CF0C2F73B
:1000560095F0400CE8CCF8E9CDF9EACEFAEBCFFB07
:1000660012033985D0F05804700320D5B3E8047024
:10007600075002B2D502037892D5EC0460F7E4CCBF
:10008600C0E0C398F8603B94186008400DD0E0FBD0
:10009600020350E4FBFAC9FC8028E830E406E4C910
:1000A600FBE4CAFCE830E305E4C9CACBFCE8540724
:1000B6006010F8C3E913F9EA13FAEB13FBEC13FC2F
:1000C600D8F130F52FC3E49CFCEF9BFFEE9AFEEDD2
:1000D60099FDD0E0FBEF4E4D4C701222DB0302037C
:1000E60075EC2CFCEF33FFEE33FEED33FDED30E720
:1000F600EB020350EF2BFFEE3AFEED39FDD0E0FBAD
:1001060050130BBB0003020378ED13FDEE13FEEF55
:0801160013FFEC13FC0203507F
:10011E00EC4D6011E8497017ED33EC3304600DE4DB
:10012E00FCFFFEFD22E933E8330470F802036E1281
:10013E00033958046009E4CC248150062850090282
:10014E000378284003020375C0E0EB4A7044B9807F
:10015E0006D0E0FB020364EF4E701CBD8008EBFF7F
:10016E00EAFEE9FD80EBE98DF0A4FEE5F002020760
:10017E00E9CDF9EAFEEBFFEF89F0A4FCE5F0CE89BC
:10018E00F0A42EFFE435F0CD89F0A42DFEE435F079
:10019E008067EF4E7005BD80D780C3EF8BF0A4ACA7
:1001AE00F0EE8BF0A42CFCE435F0F8EF8AF0A42CE2
:1001BE00E5F038FCE433CB8DF0A42CFCE5F03BF8F5
:1001CE00EE8AF0A42CFCE5F038F8E433CF89F0A4E5
:1001DE002CFCE5F038CF3400CE89F0A42FFFE5F0EB
:1001EE003EFEE433C98DF0A42EFEE5F039CD8AF043
:1001FE00A42FFFE5F03EFEE43DFD33D0E0FB5007BB
:10020E000BBB000F020378EC2CFCEF33FFEE33FE3A
:06021E00ED33FD02035068
:10022400020378EC5D046005E85904700302036E70
:10023400120339580460F6EC4860F2EC7004FDFED9
:10024400FF22C860DB2481C85009C39860025006AD
:100254000203759850CAF582E9294B4A7005AB82AE
:1002640002036475F0007C1A7880C3EF9BEE9AED6C
:1002740099400DC3EF9BFFEE9AFEED99FDE842F025
:10028400DC23ACF0D0E0FFD0E0FED0E0FDAB822078
:10029400E7101BEB60BAEC2CFCEF33FFEE33FEED02
:1002A40033FD020350E803F830E705C0F075F000B1
:1002B400EF2FFFEE33FEED33FD40B830E7C280AAE6
:1002C40075F020800E75F010800575F0087D007EB5
:1002D400007F003392D530D503120459EC3340101B
:1002E400EF33FFEE33FEED33FDEC33FCD5F0ED22BE
:0E02F400E5F0247EA2D513CC92E7CDCEFF22FA
:10030200EDD2E7CD33EC3392D524814006E4FFFEF3
:10031200FDFC22FCE4CFCECDCC24E0501174FF8052
:10032200EDC3CC13CCCD13CDCE13CECF13CF0470EF
:07033200F030D5DE02045992
:10033900E9D2E7C933E833F892D5EDD2E7CD33EC0A
:0703490033FC5002B2D52283
:10035000EC30E7100FBF000C0EBE00080DBD00040E
:100360000BEB6014A2D5EB13FCED92E7FD2274FFBA
:10037000FCFDFEFF22E480F8A2D574FF13FC7D8013
:03038000E480EF27
:030000000206AC49
:0C06AC00787FE4F6D8FD7581650206F346
:10038300BB010689828A83E0225002E722BBFE0278
:09039300E32289828A83E49322AB
:10039C00BB010CE58229F582E5833AF583E0225016
:1003AC0006E92582F8E622BBFE06E92582F8E22260
:0D03BC00E58229F582E5833AF583E493227A
:1003C900BB010A89828A83E0F5F0A3E022500687FF
:1003D900F009E71922BBFE07E3F5F009E3192289C1
:0B03E900828A83E493F5F074019322F4
:1003F400BB0110E58229F582E5833AF583E0F5F047
:10040400A3E0225009E92582F886F008E622BBFE23
:100414000AE92582F8E2F5F008E222E5832AF58369
:08042400E993F5F0A3E993222E
:10042C00F8BB0111E58229F582E5833AF583E8F002
:10043C00E5F0A3F0225009E92582C8F608A6F022BF
:0D044C00BBFE09E92582C8F2E5F008F222A6
:0E045900C3E49FFFE49EFEE49DFDE49CFC22B4
:10046700BB010789828A830204F05005E9F8020478
:10047700E3BBFE05E9F80204FC89828A83020509C9
:10048700BB010DE58229F582E5833AF5830204F085
:100497005007E92582F80204E3BBFE07E92582F845
:1004A7000204FCE58229F582E5833AF58302050912
:0C0B9100EE30E707C3E49FFFE49EFE2265
:1004B700EF4E6012EF60010EEDBB010B89828A835C
:1004C700F0A3DFFCDEFA2289F05007F709DFFCA969
:0C04D700F022BBFEFCF309DFFCA9F022C0
:1006B80002083DE493A3F8E493A34003F68001F213
:1006C80008DFF48029E493A3F85407240CC8C33343
:1006D800C4540F4420C8834004F456800146F6DF12
:1006E800E4800B010204081020408090097FE47E1A
:1006F800019360BCA3FF543F30E509541FFEE49307
:10070800A360010ECF54C025E060A840B8E493A3CD
:10071800FAE493A3F8E493A3C8C582C8CAC583CAF8
:10072800F0A3C8C582C8CAC583CADFE9DEE780BEB0
:0109B3000043
:0D04E300E6FB08E6F908E6FA08E6CBF82289
:0C04F000E0F8A3E0F9A3E0FAA3E0FB228F
:0D04FC00E2FB08E2F908E2FA08E2CBF82280
:10050900E493F8740193F9740293FA740393FB2248
:00000001FF
