:020000040800F2
:10000000780400204501000821240008232400086A
:10001000272400082B2400082F24000800000000DB
:100020000000000000000000000000003324000871
:100030003524000800000000372400083924000897
:100040005F0100085F0100085F0100085F01000810
:100050005F0100085F0100085F0100085F01000800
:100060005F0100085F0100085F0100085F010008F0
:100070005F0100085F0100085F0100085F010008E0
:100080005F0100085F0100085F0100085F010008D0
:100090005F0100085F0100085F0100085F010008C0
:1000A0005F0100085F0100085F0100085F010008B0
:1000B0005F010008992400085F0100085F01000843
:1000C0005F0100085F0100085F0100085F01000890
:1000D0005F0100083B2400085F0100085F01000881
:1000E0005F0100085F0100085F0100085F01000870
:1000F0005F0100085F0100085F0100085F01000860
:100100005F0100085F0100085F0100085F0100084F
:100110005F0100085F0100085F0100085F0100083F
:100120005F0100085F0100085F0100085F0100082F
:10013000DFF80CD003F0A0F800480047F3230008D4
:10014000780400200648804706480047FEE7FEE79F
:10015000FEE7FEE7FEE7FEE7FEE7FEE7FEE7FEE777
:1001600045020008310100080CB500200190009004
:100170006B48006840F480306949086000BF6848F7
:10018000006800F4003000900198401C0190009835
:1001900018B90198B0F5A06FF1D16148006810F46A
:1001A000003F02D00120009001E000200090009864
:1001B000012842D15B48006840F0100059490860AE
:1001C0000846006820F0030008600846006840F018
:1001D000020008605248406851494860084640683B
:1001E00048600846406840F48060486008464068BF
:1001F00020F47C1048600846406840F4E8104860ED
:100200000846006840F08070086000BF44480068FD
:1002100010F0007FFAD04248406820F003004049C7
:1002200048600846406840F00200486000BF3C4813
:10023000406800F00C000828F9D10CBD10B5FFF79C
:1002400093FF10BD10B53648006840F001003449F6
:10025000086008464068344908403149486008460B
:100260000068324908402E4908600846006820F4BA
:10027000802008600846406820F4FE0048604FF483
:100280001F008860FFF7DAFF4FF000602849086020
:1002900010BD10B5002100200022214B5B6803F047
:1002A0000C0121B1042906D0082928D107E0214BEF
:1002B000214C236027E01F4B1F4C236023E0184B89
:1002C0005B6803F47010164B5B6803F48032022302
:1002D00003EB904022B9194B4343174C23600DE0C8
:1002E0000F4B5B6813F4003F04D0144B4343124C94
:1002F000236003E00F4B43430F4C236003E00D4B9F
:100300000D4C236000BF00BF054B5B68C3F30313B4
:100310000B4CE15C084B1B68CB40074C236010BDC5
:1003200000100240002002400000FFF8FFFFF6FE30
:1003300008ED00E000127A000000002000093D00F6
:100340000400002031490143314A1160704770B503
:10035000002100230F22C4780CB32D4C246804F430
:10036000E064C4F5E064210AC1F10403CA404478A2
:1003700004FA03F18478144021430901254C0678DE
:10038000A155047804F01F050124AC4005786D11D7
:100390004FF0E02606EB8505C5F8004109E004783A
:1003A00004F01F050124AC401B4D0678761145F87A
:1003B000264070BD194A0A400243154B1B1F1A60A4
:1003C000704739B1124A121D12680243104B1B1DAF
:1003D0001A6006E00E4A121D126882430C4B1B1D68
:1003E0001A607047042808D14FF0E021096941F0F4
:1003F00004014FF0E022116107E04FF0E0210969AC
:1004000021F004014FF0E022116170470000FA056D
:100410000CED00E000E400E080E100E080FFFF1F61
:1004200010B50446FA48844208D10121401500F075
:1004300077FE0021601500F073FE17E0F548844256
:1004400008D10121001500F06BFE0021201500F0FD
:1004500067FE0BE0F048844208D10121C80300F098
:100460005FFE00214FF4004000F05AFE10BD30B591
:100470000246002000235068E84C20400D790C68AB
:1004800044EA0524204350609068E54C2040D1E9BF
:1004900002542C434D7944EA450420439060D06ACD
:1004A00020F470000C7C641EE4B2234340EA035045
:1004B000D06230BD00210160017141718160C16075
:1004C00001210174704721B1826842F0010282600B
:1004D00003E0826822F001028260704721B18268E5
:1004E00042F48072826003E0826822F4807282604B
:1004F000704710B50023CBB21AB144681C43446066
:1005000002E044689C43446010BD816841F00801EA
:1005100081607047014600208A6812F0080F01D000
:10052000012000E000207047816841F004018160F3
:100530007047014600208A6812F0040F01D00120A4
:1005400000E00020704721B1826842F4A00282607E
:1005500003E0826822F4A002826070470146002016
:100560008A6812F4800F01D0012000E0002070475B
:1005700010B50A4600210023416821F46041531E52
:1005800041EA4331416010BD21B1426842F400624A
:10059000426003E0426822F4006242607047F0B5B6
:1005A00004460D4600200021092D11DDE068A5F16B
:1005B0000A0606EB4607072606FA07F18843A5F167
:1005C0000A0606EB460603FA06F10843E0600CE073
:1005D000206905EB4507072606FA07F1884305EB76
:1005E000450603FA06F108432061072A0FDA606B1B
:1005F000561E06EB86071F2606FA07F18843561E8D
:1006000006EB860605FA06F10843606322E00D2A30
:100610000FDA206BD61F06EB86071F2606FA07F1B6
:100620008843D61F06EB860605FA06F108432063C9
:1006300010E0E06AA2F10D0606EB86071F2606FA17
:1006400007F18843A2F10D0606EB860605FA06F1CE
:100650000843E062F0BD21B1826842F480128260FA
:1006600003E0826822F48012826070470146C86C01
:1006700080B2704766484C300068704721B14268CC
:1006800042F48062426003E0426822F48062426089
:10069000704721B1426842F48052426003E04268F0
:1006A00022F48052426070470A460021816821F49A
:1006B000E04111438160704721B1826842F40042F9
:1006C000826003E0826822F400428260704721B1B8
:1006D000826842F40212826003E0826822F402120D
:1006E00082607047014600208A6812F4001F01D022
:1006F000012000E000207047F0B5044615460020B8
:1007000000220026092911DDE068A1F10A0707EBA4
:10071000470C072707FA0CF29043A1F10A0707EBF1
:10072000470703FA07F21043E0600CE0206901EB91
:10073000410C072707FA0CF2904301EB410703FA3B
:1007400007F210432061A06BC0F30156EF1C06F1C5
:10075000010CA7EB0C0707EB870C1F2707FA0CF21D
:100760009043EF1C06F1010CA7EB0C0707EB870782
:1007700001FA07F21043A063F0BD10B50A4600214C
:100780000023816B21F44011531E41EA0351816320
:1007900010BD08B5002300930090009B0B4400930C
:1007A000009B1A6008BD08B5024600200090009228
:1007B00001F12800009B184400900098006880B266
:1007C00008BD0A4600214168164B1940114341609B
:1007D00070474162826270470A460021416821F0F9
:1007E0001F0111434160704740B109490831096850
:1007F00041F40001064A0832116007E0044908315B
:10080000096821F40001024A0832116070470000B3
:100810000024014000280140003C0140FFFEF0FFA1
:10082000FDF7F1FFFFFD3FFF0246002013680B427A
:1008300001D0012000E000207047CA4302607047E9
:1008400070B502460020002300240B125568CEB27A
:1008500005EA060415681D4202D00CB1012000E033
:10086000002070BD00220A12D343036070470000CD
:1008700001684FF6FE721140016000210160416085
:100880008160C1608C49884208D18B490839496828
:1008900041F00F01884A083A51608AE086491431D4
:1008A000884208D184490839496841F0F001824AF8
:1008B000083A51607DE080492831884208D17E495C
:1008C0000839496841F470617B4A083A516070E028
:1008D00079493C31884208D177490839496841F45F
:1008E0007041754A083A516063E07349503188425B
:1008F00008D171490839496841F470216E4A083AB3
:10090000516056E06C496431884208D16A4908391F
:10091000496841F47001684A083A516049E0664903
:100920007831884208D164490839496841F07061DA
:10093000614A083A51603CE06049884206D1011F93
:10094000096841F00F01021F116032E05B49143168
:10095000884208D15949091F096841F0F001574AF6
:10096000121F116025E055492831884208D15349AA
:10097000091F096841F47061504A121F116018E0A4
:100980004E493C31884208D14C49091F096841F45D
:1009900070414A4A121F11600BE0484950318842A9
:1009A00007D14649091F096841F47021434A121FC3
:1009B0001160704710B50022026847F6F0739A4341
:1009C0000C6A8B6823430C6923434C6923438C696D
:1009D0002343CC6923434C6A23438C6A23431A4341
:1009E0000260CB6843600B6883604B68C36010BDD6
:1009F0000021016041608160C160016141618161EC
:100A0000C161016241628162704721B1026842F0B6
:100A10000102026004E002684FF6FE731A400260B1
:100A200070471AB103680B43036002E003688B430D
:100A300003607047416070470146486880B2704764
:100A400001460020002211F0805F03D01B4B083BC1
:100A50001A6802E0184B083B1A680A4201D00120CC
:100A600000E00020704710F0805F03D01349091F99
:100A7000086002E0104908394860704701460020CC
:100A8000002211F0805F03D00C4B083B1A6802E093
:100A9000094B083B1A680A4201D0012000E00020FF
:100AA000704710F0805F03D00449091F086002E01E
:100AB00001490839486070470800024008040240B4
:100AC00010B50446CA48844208D10121042000F030
:100AD00027FB0021042000F023FB46E0C5488442A8
:100AE00008D10121082000F01BFB0021082000F0A4
:100AF00017FB3AE0C048844208D10121102000F0E1
:100B00000FFB0021102000F00BFB2EE0BB488442BD
:100B100008D10121202000F003FB0021202000F05B
:100B2000FFFA22E0B648844208D10121402000F0BB
:100B3000F7FA0021402000F0F3FA16E0B1488442B1
:100B400008D10121802000F0EBFA0021802000F084
:100B5000E7FA0AE0AC48844207D10121801500F091
:100B6000DFFA0021A01500F0DBFA10BD10B501215D
:100B7000084600F0D5FA0021012000F0D1FA10BD9E
:100B80002DE9F04102460025002600200023002424
:100B9000002791F803C00CF00F0591F803C01CF07A
:100BA000100F03D091F802C04CEA050591F800C07F
:100BB000BCF1000F31D0146800202BE04FF0010C85
:100BC0000CFA00F3B1F800C00CEA03069E4220D1F3
:100BD00083004FF00F0C0CFA03F7BC4305FA03FC3B
:100BE0004CEA040491F803C0BCF1280F06D14FF081
:100BF000010C0CFA00FCC2F814C00AE091F803C022
:100C0000BCF1480F05D14FF0010C0CFA00FCC2F802
:100C100010C0401C0828D1D31460B1F800C0BCF14A
:100C2000FF0F34DD546800202EE000F1080C4FF077
:100C3000010808FA0CF3B1F800C00CEA03069E4262
:100C400021D183004FF00F0C0CFA03F7BC4305FAD7
:100C500003FC4CEA040491F803C0BCF1280F05D151
:100C600000F1080C08FA0CF8C2F8148091F803C0DF
:100C7000BCF1480F07D100F1080C4FF0010808FA49
:100C80000CF8C2F81080401C0828CED35460BDE890
:100C9000F0814FF6FF710180022181700421C17043
:100CA00070470246002093680B4201D0012000E00B
:100CB000002070470146886880B2704702460020D5
:100CC000D3680B4201D0012000E0002070470146AC
:100CD000C86880B2704701617047416170470AB1CE
:100CE000016100E041617047C16070474FF480329C
:100CF0000A4382618161826182698269704702462A
:100D00000020424B18684FF68073184040EA0210EA
:100D100008433E4B186070473D49C8617047F0B5C5
:100D20000A46002300240021002500F00046B6F109
:100D3000004F02D1354EF16901E0344E7168C0F3C5
:100D4000034583B200F44016B6F5401F08D121F0E8
:100D500070612E4E766826F070662C4F7E6012E031
:100D600000F48016B6F5801F06D1032606FA05F4B6
:100D7000A14341F0706106E0460D360103FA06F624
:100D8000B14341F0706122B1460D360103FA06F617
:100D9000314300F00046B6F1004F02D11B4EF16125
:100DA00001E01A4E7160F0BD30B500228B071C0FB8
:100DB0000F2303FA04F2154B08338C1053F8243038
:100DC0009343124C08348D1044F8253023468C1080
:100DD00053F824308C07240F00FA04F423430B4CFF
:100DE00008348D1044F8253030BD0A49086070473A
:100DF00000080140000C01400010014000140140B7
:100E000000180140001C014000200140000001408A
:100E100000002042DC002042DD48006840F0010074
:100E2000DB49086008464068DA490840D84948600C
:100E300008460068D8490840D54908600846006857
:100E400020F4802008600846406820F4FE004860D6
:100E50004FF41F0088607047CD49096821F4803144
:100E6000CB4A11601146096821F480211160B0F568
:100E7000803F03D0B0F5802F0ED106E0C449096849
:100E800041F48031C24A116007E0C149096841F468
:100E9000A021BF4A116000E000BF00BF704710B53D
:100EA00001460022002300204A11012A02D1B84C39
:100EB000236806E0022A02D1B54C236A01E0B44C53
:100EC000636A01F01F02012494401C4201D00120FA
:100ED00000E0002010BD38B500200090002400255F
:100EE00000BF3120FFF7DBFF05460098401C009053
:100EF0000098B0F5A06F01D0002DF2D03120FFF79F
:100F0000CEFF08B1012400E00024204638BD014690
:100F100000209F4A106820F0F80040EAC1001060ED
:100F200070479E490860704702460020984B5868F9
:100F300020F47C1042EA01031843954B5860704737
:100F400096490866704701460020914A506820F093
:100F500003000843506070478D48406800F00C0063
:100F60007047014600208A4A506820F0F00008438C
:100F70005060704701460020854A506820F4E060C8
:100F800008435060704701460020814A506820F4B1
:100F9000605040EAC1005060704729B17C4A527AE3
:100FA00002437B4B5A7204E0794A527A8243784B6F
:100FB0005A7270477A490860704701460020744AA7
:100FC000506820F440400843506070470021754A43
:100FD00011706F4A82F82010012802D0042808D12D
:100FE00003E001216F4A117004E005216D4A117080
:100FF00000E000BF00BF70476B490860704764495C
:10100000096A0143624A11627047674944390860BE
:10101000704730B500210022002400235C4D6D682C
:1010200005F00C0121B1042905D0082923D105E0E0
:101030005E4D056022E05D4D05601FE0544D6D681A
:1010400005F47012524D6D6805F48034022505EBED
:1010500092421CB9564D554305600BE04C4D6D68EE
:1010600015F4003F03D0524D5543056002E04F4D4B
:101070005543056002E04D4D056000BF00BF444D83
:101080006D6805F0F00109094A4D6B5C0568DD40AB
:1010900045603F4D6D6805F4E061090A454D6B5CA4
:1010A0004568DD4085603A4D6D6805F46051C90AB8
:1010B000404D6B5C4568DD40C560354D6D6805F49D
:1010C0004041890B3C4D6B5CC568B5FBF3F5056190
:1010D00030BD29B12E4A526902432D4B5A6104E0BA
:1010E0002B4A526982432A4B5A61704729B1284AD8
:1010F00092690243264B9A6104E0254A9269824331
:10110000234B9A61704729B1214AD2690243204B8F
:10111000DA6104E01E4AD26982431D4BDA617047EE
:1011200029B11B4AD2680243194BDA6004E0184A1D
:10113000D2688243164BDA60704729B1144A1269AB
:101140000243134B1A6104E0114A12698243104BA7
:101150001A61704714494039086070470F49C864E4
:1011600070470B49C87170470948406A40F0807069
:1011700007494862704701460020054A92680A42C2
:1011800001D0012000E000207047014988727047BB
:10119000001002400000FFF8FFFFF6FE0000424290
:1011A000D8004242201002408004424200127A00DD
:1011B00000093D00140000202400002010B5044662
:1011C000FE48844208D10121C014FFF7A9FF002185
:1011D000E014FFF7A5FFC4E0B4F1804F08D101216E
:1011E0000846FFF7AAFF00210120FFF7A6FFB8E09D
:1011F000F348844208D101210220FFF79EFF00211D
:101200000220FFF79AFFACE0EE48844208D10121AA
:101210000420FFF792FF00210420FFF78EFFA0E0DB
:10122000E948844208D101210820FFF786FF002108
:101230000820FFF782FF94E0E448844208D10121AE
:101240001020FFF77AFF00211020FFF776FF88E0DB
:10125000DF48844208D101212020FFF76EFF0021E2
:101260002020FFF76AFF7CE0DA48844208D10121A0
:101270004014FFF755FF00216014FFF751FF70E0A5
:10128000D548844209D10121C804FFF749FF002154
:101290004FF40020FFF744FF63E0D048844209D1B7
:1012A00001210805FFF73CFF00214FF48010FFF7F4
:1012B00037FF56E0CA48844209D101214805FFF7AB
:1012C0002FFF00214FF40010FFF72AFF49E0C54827
:1012D000844208D101214020FFF72FFF0021402048
:1012E000FFF72BFF3DE0C048844208D10121802058
:1012F000FFF723FF00218020FFF71FFF31E0BB48ED
:10130000844208D101218015FFF717FF0021A015A5
:10131000FFF713FF25E0B648844209D101210804F4
:10132000FFF7FEFE00214FF48030FFF7F9FE18E0D2
:10133000B048844209D101214804FFF7F1FE0021A1
:101340004FF40030FFF7ECFE0BE0AB48844208D1CD
:1013500001218804FFF7E4FE00214FF48020FFF70D
:10136000DFFE10BD00220288944B98420ED0994BAC
:1013700098420BD0B0F1804F08D0914B984205D0E5
:10138000904B984202D0904B984204D14FF68F7305
:101390001A404B881A438D4B984207D08C4B984289
:1013A00004D04FF6FF431A40CB881A4302808B8843
:1013B00083850B880385814B98420BD0854B9842DF
:1013C00008D08B4B984205D08A4B984202D08A4B6A
:1013D000984201D10B7A038601238382704770B54E
:1013E000002400220023058C4FF6FE76354005844C
:1013F000028C8388048B4FF68F752C40B51E2C40D1
:101400000D882C43751E2A400D892A434D882A4396
:101410006A4DA8420BD06F4DA84208D0744DA84227
:1014200005D0744DA84202D0734DA84213D14FF697
:10143000F7752A404D892A434FF6FB752A408D885F
:101440002A434FF6FF652B404FF6FF552B408D8901
:101450002B43CD892B4383800483CD8885860284EA
:1014600070BD70B5002400220023058C4FF6EF7686
:1014700035400584028C8388048B48F6FF752C4028
:101480004FF6FF452C400D884FF6FF7606EA0525FE
:101490002C434FF6DF752A400D8906EA05152A43CD
:1014A0004D8806EA05152A43444DA84202D0494D0D
:1014B000A8421DD14FF67F752A404D894FF6FF7621
:1014C00006EA05152A434FF6BF752A408D8806EABD
:1014D00005152A434FF6FF352B404FF2FF752B4081
:1014E0008D8906EA85052B43CD8906EA85052B43C0
:1014F00083800483CD880587028470BD70B5002485
:1015000000220023058C4FF6FF6635400584028CCF
:101510008388848B4FF68F752C404FF6FC752C40DA
:101520000D882C434FF6FF552A400D894FF6FF7664
:1015300006EA05252A434D8806EA05252A431F4D5C
:10154000A84202D0234DA8421DD14FF2FF752A4078
:101550004D894FF6FF7606EA05252A434FF6FF35FB
:101560002A408D8806EA05252A434EF6FF752B4052
:101570004DF6FF752B408D8906EA05152B43CD8965
:1015800006EA05152B4383808483CD8885870284F2
:1015900070BD70B5002200230024058C4EF6FF7646
:1015A00035400584038C8488828B48F6FF752A4079
:1015B0004FF6FF452A400D8820E00000002C014036
:1015C0000004004000080040000C004000100040F3
:1015D0000014004000340140004C01400050014024
:1015E0000054014000180040001C00400020004052
:1015F0000040014000440140004801404FF6FF76A2
:1016000006EA05252A434DF6FF752B400D8906EAAB
:1016100005352B434D8806EA05352B43FA4DA84284
:1016200002D0FA4DA84208D14BF6FF752C408D89A7
:101630004FF6FF7606EA85152C4384808283CD8899
:10164000A0F84050038470BD828B4FF2FF331A40E4
:101650008283828B4FF6FF7303EA01231A4382834E
:101660007047F0B50C461546002200210026078C75
:101670004EF6FF7C07EA0C070784828B018C4FF63D
:10168000FF7707EA043640F6FF473A404FF6FF7708
:1016900007EA05273A434FF6FF7707EA03373A434D
:1016A000D94FB8420ED0D94FB8420BD0B0F1804FCD
:1016B00008D0D74FB84205D0D64FB84202D0D64F47
:1016C000B84206D14DF6FF77394046F4805739438A
:1016D00005E047F6FF57394044F480573943828389
:1016E0000184F0BD828B4FF6F3731A408283828BA4
:1016F0000A4382837047F0B50C461546002200214C
:101700000026078C4FF6FF6C07EA0C070784828BD4
:10171000018C4FF6FF7707EA04264FF60C773A4024
:101720004FF6FF7707EA03172F433A43B64FB84205
:101730000ED0B64FB8420BD0B0F1804F08D0B44FA6
:10174000B84205D0B34FB84202D0B34FB84206D129
:101750004FF6FF57394046F48077394305E04FF2A2
:10176000FF57394044F48077394382830184F0BDC8
:10177000028B4FF2FF331A400283028B4FF6FF7346
:1017800003EA01231A4302837047F0B50C4615465D
:10179000002200210026078C4FF6EF7C07EA0C0799
:1017A0000784028B018C4FF6FF7707EA041640F698
:1017B000FF473A404FF6FF7707EA03373A434FF6C1
:1017C000FF7707EA05273A438F4FB8420ED08F4F75
:1017D000B8420BD0B0F1804F08D08D4FB84205D041
:1017E0008C4FB84202D08C4FB84206D14FF6DF770B
:1017F000394046F01007394305E04FF65F7739402E
:1018000044F01007394302830184F0BD028B4FF688
:10181000F3731A400283028B0A4302837047F0B5C8
:101820000C46154600220021068C4FF6FE773E40FE
:101830000684028B018C4FF60C7632407E1C06EA41
:1018400003162E433243704EB0420ED06F4EB0425C
:101850000BD0B0F1804F08D06D4EB04205D06D4E28
:10186000B04202D06C4EB04206D14FF6FD76314008
:1018700044F00106314305E04FF6F576314044F07F
:101880000106314302830184F0BD70B505460C4664
:101890005D4885420ED05D4885420BD0B5F1804F42
:1018A00008D05B48854205D05A48854202D05A4844
:1018B000854200D100E000BF208850B92389A2886A
:1018C00061882846FFF7ABFFE1882846FFF79EFFB7
:1018D00025E0208804280AD12389A2886188284627
:1018E000FFF753FFE1882846FFF742FF17E0208803
:1018F00008280AD12389A28861882846FFF7FBFEC1
:10190000E1882846FFF7EEFE09E02389A288618876
:101910002846FFF7A6FEE1882846FFF795FE70BD32
:101920002DE9F04105460C4600260127608808B9DC
:10193000022600E00026A088012801D1022700E04D
:1019400001272088A0B92389A28861882846FFF74B
:1019500066FFE1882846FFF759FF23893A4631465A
:101960002846FFF712FFE1882846FFF701FF13E042
:101970002389A28861882846FFF707FFE188284667
:10198000FFF7F6FE23893A4631462846FFF747FF20
:10199000E1882846FFF73AFFBDE8F0810A884B88C6
:1019A0001A438B881A43CB881A430B891A434B89F5
:1019B0001A438B891A43A0F8442070474FF6FF71F1
:1019C000818000210180C180418001727047002127
:1019D000018041808180C180018141818181C181FB
:1019E0007047002101804180012181800021C18058
:1019F000018170470021018041808180C180018187
:101A00004181818170470000002C01400034014079
:101A10000004004000080040000C004021B1028892
:101A200042F00102028004E002884FF6FE731A4081
:101A30000280704731B1B0F8442042F40042A0F86F
:101A4000442005E0B0F84420C2F30E02A0F8442080
:101A500070471AB183890B43838102E083898B43EA
:101A6000838170478182704741EA0203A0F84830C1
:101A700070471AB183890B43838102E083898B43CA
:101A80008381704701894FF6F872114001817047D8
:101A90000A46002101894FF68F73194011430181D5
:101AA000704730B504460D4629462046FFF7F0FF43
:101AB000208940F00700208130BD2DE9F041044627
:101AC0000D4616461F46602D06D13B460122314683
:101AD0002046FFF75AFE05E03B46012231462046EC
:101AE000FFF79DFE29462046FFF7D2FF208940F0F0
:101AF00007002081BDE8F08130B50C460021018946
:101B0000C9B24FF6FF7505EA03251543254329435E
:101B1000018130BD2DE9F04105460E461746984635
:101B2000002443463A4631462846FFF7E5FF2C8914
:101B30004FF6F870044044F007044FF68F700440ED
:101B400044F070042C81BDE8F081F0B504460D46E8
:101B500016461F463B46324629462046FFF7CCFF35
:101B6000208940F480402081F0BD01858282704749
:101B70000A46002101884FF68F73194011430180F6
:101B80007047F0B50C4615461E4600210022002382
:101B90000189028B038C4FF6F877394021434FF6C9
:101BA000FC473A4040F201173A434FF6DD773B409D
:101BB0004FF6FF7707EA06172F433B430181028365
:101BC0000384F0BD0A460021018B4FF68F73194044
:101BD0001143018370470A460021018B48F6FF73C9
:101BE00019404FF6FF7303EA02231943018370473C
:101BF0000A460021818B4FF68F7319401143818370
:101C000070470A460021818B48F6FF7319404FF652
:101C1000FF7303EA022319438183704721B10288CD
:101C200042F08002028004E002884FF67F731A407F
:101C30000280704721B1828842F00402828004E071
:101C400082884FF6FB731A408280704721B18288E8
:101C500042F00802828004E082884FF6F7731A404F
:101C60008280704721B1828842F00102828004E0C4
:101C700082884FF6FE731A40828070470A46002120
:101C8000018B4FF6F77319401143018370470A46E1
:101C90000021018B4FF2FF7319404FF6FF7303EAE7
:101CA00002231943018370470A460021818B4FF6B6
:101CB000F77319401143818370470A460021818BD5
:101CC0004FF2FF7319404FF6FF7303EA02231943E3
:101CD000818370470A460021018B4FF6FB73194040
:101CE0001143018370470A460021018B4FF6FF33F1
:101CF00019404FF6FF7303EA02231943018370472B
:101D00000A460021818B4FF6FB73194011438183F2
:101D100070470A460021818B4FF6FF3319404FF67A
:101D2000FF7303EA02231943818370470A460021A7
:101D3000018B4FF67F7319401143018370470A46A8
:101D40000021018BC1F30E014FF6FF7303EA02235A
:101D50001943018370470A460021818B4FF67F7338
:101D600019401143818370470A460021818BC1F3DA
:101D70000E014FF6FF7303EA022319438183704774
:101D80000A460021018C4FF6FD731940114301846E
:101D900070470A460021018C4FF6F7731940114332
:101DA000018470470A460021018C4FF6DF73194009
:101DB0004FF6FF7303EA02131943018470470A4682
:101DC0000021018C4FF67F7319404FF6FF7303EA31
:101DD00002131943018470470A460021018C4FF613
:101DE000FF5319404FF6FF7303EA0223194301849E
:101DF00070470A460021018C4FF2FF7319404FF6DD
:101E0000FF7303EA02231943018470470A46002145
:101E1000018C4DF6FF7319404FF6FF7303EA02334E
:101E200019430184704730B5002301248C40A3B2CC
:101E3000048C9C430484048C02FA01F5ADB22C435B
:101E4000048430BD30B5002304248C40A3B2048C3C
:101E50009C430484048C02FA01F5ADB22C43048443
:101E600030BD70B503460020002418461830012507
:101E70008D40ACB21D8CA5431D8409B1082909D140
:101E800000EB6100056825F07005056005681543E5
:101E900005600EE00D1FC5F34E052844056825F4C6
:101EA000E045056005684FF6FF7606EA02263543F1
:101EB000056070BD21B1028842F00202028004E098
:101EC00002884FF6FD731A400280704721B10288E4
:101ED00042F00402028004E002884FF6FB731A40CD
:101EE0000280704721B1828842F08002828004E043
:101EF00082884FF67F731A408280704702884FF6BF
:101F0000F7731A40028002880A4302807047828871
:101F10004FF68F731A40828082880A43828070470E
:101F200002894FF6F8731A40028102890A4302813E
:101F3000704702894FF67F731A40028102890A4373
:101F40000281704781847047818570478186704720
:101F50000187704781877047A0F84010704702885A
:101F60004FF6FF431A40028002880A4302807047FE
:101F70000146888E70470146088F70470146888F5A
:101F800070470146B1F8400070470146888C7047A1
:101F90000146088D704702460020138A0B4201D08B
:101FA000012000E000207047CA430282704730B52C
:101FB0000246002000230024158A05EA01039589C2
:101FC00005EA010413B10CB1012000E0002030BD8E
:101FD000CA4302827047000010B50446FB488442A1
:101FE00009D101218803FFF79BF800214FF48040BD
:101FF000FFF796F832E0F648844209D101214804FF
:10200000FFF79BF800214FF40030FFF796F825E02A
:10201000F048844209D101218804FFF78EF800219D
:102020004FF48020FFF789F818E0EB48844209D18B
:102030000121C804FFF781F800214FF40020FFF7C9
:102040007CF80BE0E548844208D101210805FFF740
:1020500074F800214FF48010FFF76FF810BD2DE9E0
:10206000F04786B005460E460024A24600BFA146B2
:102070000027B08900B100BF2F462C8A4CF6FF70B4
:102080000440F08804432C82AC894EF6F3100440DF
:10209000B08831890843718908430443AC81AC8A14
:1020A0004FF6FF400440B0890443AC8201A8FEF71C
:1020B000B0FFC648874202D1DDF810A001E0DDF88C
:1020C0000CA0A88910F4004F08D00AEBCA0000EB5E
:1020D0000A1031684900B0FBF1F807E00AEBCA00CA
:1020E00000EB0A1031688900B0FBF1F86420B8FBFE
:1020F000F0F004012009642101FB1089A88910F483
:10210000004F08D0322000EBC900B0FBF1F000F026
:102110000700044308E0322000EB09106421B0FB03
:10212000F1F000F00F0004432C8106B0BDE8F08709
:102130004FF41651016000218180C18001810C2182
:10214000418100218181704710B502460020108A2C
:102150004FF2FF0318400B884C8823438C8823439D
:10216000CC8823431843108210BD00210180418098
:102170008180C180704721B1828942F400528281FE
:1021800004E082894DF6FF731A4082817047F0B5F2
:1021900003460024002600250020A1F510676A3FB1
:1021A00000D100BF1846C1F3421401F01F060127F9
:1021B00007FA06F5012C01D10C3004E0022C01D104
:1021C000103000E014301AB107682F43076002E0B6
:1021D0000768AF430760F0BD1AB1838A0B4383825F
:1021E00002E0838A8B4383827047028A4FF6F07342
:1021F0001A400282028A0A430282704782894FF2A1
:10220000FF731A40828182890A438281704721B11B
:10221000828942F00202828104E082894FF6FD73D6
:102220001A4082817047028A4FF6DF731A40028299
:10223000028A0A430282704721B1028A42F4804234
:10224000028204E0028A4BF6FF731A400282704752
:10225000C1F308028280704701468888C0F30800F5
:102260007047818941F0010181817047028BD2B2B0
:102270000283028B42EA012202837047028B02F43E
:102280007F420283028B0A430283704721B1828A14
:1022900042F02002828204E0828A4FF6DF731A4005
:1022A0008282704721B1828A42F01002828204E069
:1022B000828A4FF6EF731A408282704721B1828A78
:1022C00042F00802828204E0828A4FF6F7731A40D5
:1022D0008282704721B1828942F40042828103E008
:1022E0008289C2F30E028281704721B1828A42F450
:1022F0000062828204E0828A4FF2FF731A40828277
:102300007047828A4FF6FB731A408282828A0A43A0
:102310008282704721B1828A42F00202828204E006
:10232000828A4FF6FD731A4082827047024600206F
:10233000B1F5007F00D100BF13880B4201D001200E
:1023400000E00020704701F40072B2F5007F00D178
:1023500000BFCA430280704770B5024600240023C4
:1023600000250020A1F510666A3E00D100BFC1F330
:10237000421501F01F03012606FA03F3012D02D1D5
:102380009689334006E0022D02D1168A334001E0DF
:10239000968A33400C12012606FA04F4168834405B
:1023A00013B10CB1012000E0002070BD10B5002277
:1023B0000023A1F510646A3C00D100BF0A12012479
:1023C0009440A3B2DC43048010BD000000380140FB
:1023D0000044004000480040004C004000500040D5
:1023E00001B502E00098401E009000980028F9D145
:1023F00008BD00F029F900F066F900F043FB00F099
:1024000042FA00F0E1F809E000F0D2F908B100F07A
:1024100094F900F0C2FA08B100F013FAF4E70000F2
:10242000704700BFFEE700BFFEE700BFFEE700BF4A
:10243000FEE7704770477047704710B540F225516E
:102440001B48FFF789FF30B31948FFF705FFC4B2F7
:10245000184819490978445417490978405C4028BC
:1024600002D101201549087014480078012812D1C2
:1024700011480078401C1049087011480078401E2F
:102480000978884207D100200C4908700A49087071
:1024900001200C49087010BD10B501210A48FFF752
:1024A00086FD18B101210848FFF792FD10BD00001C
:1024B0000038014040000020290000202C000020AE
:1024C000280000202B0000200004004008B5012156
:1024D0000846FEF7FEFD01214FF40270FEF706FEEE
:1024E0000220ADF8000000208DF8030069464F4837
:1024F000FEF746FB08BD00B591B04D48FEF7B8F9B0
:102500004C4806904C480790002008900120099004
:1025100000200A900B904FF480700C9080000D907A
:1025200020200E9000020F900020109006A9404835
:10253000FEF740FA01213E48FEF767FA00200190BD
:102540008DF8080001208DF809004FF460200390F9
:102550000020049001208DF8140001A935484C3862
:10256000FDF785FF4FF44040FEF727FD05230122CC
:10257000092130484C38FEF712F801212D484C381B
:10258000FDF7ACFF01212B484C38FDF79CFF294893
:102590004C38FDF7BAFF00BF26484C38FDF7BAFFAC
:1025A0000028F9D123484C38FDF7BEFF00BF214871
:1025B0004C38FDF7BEFF0028F9D101211D484C38E9
:1025C000FDF7C1FF11B000BD10B5FFF77FFFFFF7AA
:1025D00092FF10BD70B51848008800F0BDFB06469C
:1025E0004FF08B4100F000FB0546144900F0C6FA9D
:1025F0000446204600F0EFFB05462A460B4610A095
:1026000000F07EFE70BD70B50B48008800F0A4FBA2
:1026100006464FF08B4100F0E7FA0546074900F007
:10262000ADFA044600F0C3FB70BD0000000C014091
:10263000080002404C2401403000002000404E457C
:10264000405025660000000000B585B0012144F22D
:102650000400FEF74BFD4FF40070ADF81000182099
:102660008DF8130003208DF8120004A95248FEF7DC
:1026700087FA4FF48060ADF8100004208DF8130045
:1026800004A94D48FEF77CFA4FF4E1300090002099
:10269000ADF80400ADF80600ADF80800ADF80C0088
:1026A0000C20ADF80A0069464448FFF7D8FC012227
:1026B00040F225514148FFF76AFD01213F48FFF7ED
:1026C0005AFD05B000BD08B54FF4E060FDF73AFED5
:1026D00025208DF8000000208DF8010001208DF8E4
:1026E00002008DF803006846FDF731FE08BD70B5A5
:1026F00004460D46E1B23148FFF7AAFD00BF802134
:102700002E48FFF713FE0028F9D0204670BD10B503
:10271000044600BF20212948FFF708FE0028F9D011
:102720002648FFF799FD10BD014608784A785040C9
:102730008A785040CA785040704710B50020204930
:1027400008702048C178807801EB00241D4840784B
:1027500030380A2829D2DFE800F005090D111C15D0
:10276000191F2225204600F0A2F81FE0204600F0A5
:10277000BDF81BE0204600F0CFF817E0204600F03F
:10278000E1F813E0204600F095F80FE0FFF722FF94
:102790000CE000F04EF809E000F0EAF806E000F086
:1027A000EFF803E000F0F5F800E000BF00BF10BD57
:1027B00003480078704700000008014000380140DD
:1027C0002B000020400000202DE9FC5F04460E464F
:1027D0007348C069851BD4E903100844284460612C
:1027E000E0682F1AE0682061E560384600F0ABFA37
:1027F0008346A16800F0C2F98146606900F0A3FA3F
:102800000090616800F0BAF98346284600F09BFA10
:102810000090216800F0B2F95946019000F056F995
:102820008246494600F052F9804600F0A7FABDE81A
:10283000FC9F10B55A488269C1695AA000F060FD3A
:1028400010BD10B5FFF7DFFE044621465448FFF7E0
:10285000BBFF53498969084451498861084680692A
:1028600041F26831884202DD08464D4988614C4892
:102870008069202802DA202049498861484988690E
:1028800000F006F910BD10B52421454800F013F9F9
:102890004648434908600020486045488860002059
:1028A00088614FF44860C8611420086210BD3C493B
:1028B000C861704710B504463E480460006841F2A4
:1028C0006831884202D908463A49086039480068A8
:1028D000202802D22020374908603648006800F0DE
:1028E000D7F8344800682E49886110BD2DE9F041C1
:1028F0000446A4F51C500F380CD0204600F031FAE5
:10290000054600222C4B00F0AFF9074600F076FA9E
:1029100023490860BDE8F0812DE9F0410446A4F5A3
:102920001C500F380CD0204600F01BFA0546002240
:10293000214B00F099F9074600F060FA1849486009
:10294000BDE8F0812DE9F0410446A4F51C500F3894
:102950000CD0204600F005FA05460022164B00F088
:1029600083F9074600F04AFA0D498860BDE8F08116
:1029700010B5002011490870202000F089F810BD22
:1029800010B500200D49087041F2683000F080F861
:1029900010BD012009490870704708480078704749
:1029A0005000002025642C2564000000CDCC4C3E56
:1029B000000040403400002000408F4038000020DC
:1029C00008B501210820FEF791FB0120ADF80000B9
:1029D00018208DF8030003208DF802006946304866
:1029E000FEF7CEF808BD08B54FF4C060FDF7AAFCAD
:1029F0001D208DF8000000208DF8010002208DF8C8
:102A0000020001208DF803006846FDF7A0FC08BD18
:102A100000B587B001210220FEF775FB41F2683056
:102A2000ADF814000220ADF810000020ADF816003B
:102A3000ADF8120004A91B48FEF794FC6020ADF825
:102A400000000120ADF802000020ADF80600ADF84E
:102A5000080069461348FEF751FD08211148FFF7A9
:102A600023F901210F48FFF7D9F801210D48FEF79E
:102A7000D5FF012211460B48FEF7EBFFFFF7B3FF2E
:102A800007B000BD10B5FFF79BFFFFF7C1FF10BDFA
:102A900010B50446A1B20348FFF75CFA10BD000070
:102AA000000C014000040040D2B201E000F8012B0C
:102AB000491EFBD270470022F6E710B513460A46BE
:102AC00004461946FFF7F0FF204610BDF0B480EA37
:102AD0000102D40F4200B2EB410F02D20246084677
:102AE00011464A0042D0C30DDDB2C1F3C752AD1A40
:102AF000202D35DAC1F3160141F4000204B152422F
:102B0000C5F1200602FA06F12A411044B3EBD05F6A
:102B100023D0C4B1012DA0EBC35009DCF0BC4FF0B1
:102B2000004202EAC35200F50000DBB200F0D2B965
:102B3000400000F1807000EBC350A0F1807040EACB
:102B4000D170490009E0490841EAC071A0EBC350C7
:102B500000F50000400800EBC350F0BC00F0B1B934
:102B60006142012202EB4101001BF6E7F0BC704715
:102B700081F00041AAE780F00040A7E780EA010267
:102B800010B502F00043400026D04A0023D04FEA9F
:102B9000106101EB1261C0F35600C2F3560240F41B
:102BA000000042F40002A0FB0220A1F17F014FEAE5
:102BB0000040140401D000F1010050EA124001D499
:102BC0004000491EC2B20C0604EBD010401C400865
:102BD000802A02D003E0002010BD20F0010000296F
:102BE00000DA0020184310BD30B480EA010202F080
:102BF000004530F0004221F0004015D0A0B1C0F3F4
:102C0000C753C2F3C754C2F31601C0F31600E41A47
:102C100041F4000140F400027D34914201D3641C70
:102C200000E04900002C02DA30BC002070474FF46D
:102C300000000023914201D3891A034340084FEA60
:102C40004101F7D151B1914202D14FF0004105E06D
:102C500002D24FF0010101E06FF0010103EBC4501B
:102C6000284430BC00F02DB92DE9F04D81EA030471
:102C700004F0004B21F0004514464FF0000A23F009
:102C8000004150EA050220D054EA01021DD0C5F3EC
:102C90000A570246C5F31303C1F31300C1F30A56E2
:102CA00040F4801543F48013A7EB0608101BD646AA
:102CB00008F2FD3873EB050002D308F1010801E0CA
:102CC00092185B41B8F1000F03DA00200146BDE81D
:102CD000F08D00204FF48011064684460EE0171B4D
:102CE00073EB050705D3121B63EB050306434CEAA0
:102CF000010C49084FEA300092185B4150EA010785
:102D0000EDD152EA030012D082EA040083EA050101
:102D1000084303D100224FF0004308E0101BAB41F1
:102D200002D20122002302E06FF0010253101AEBDD
:102D300006004CEB085110EB0A0041EB0B01BDE81B
:102D4000F04D00F0F4B8C10F80EAE0700844CA0703
:102D50009623002100F0BEB896230022114600F011
:102D6000B9B80EB540F2334102910021CDE900110E
:102D70000A460B4600F0E8F803B000BD00F0004240
:102D800020F00040C10DC0F3160040F400007F2980
:102D900001DA00207047962903DCC1F19601C84092
:102DA00001E096398840002AF4D04042704720F074
:102DB0000040C10DC0F3160040F400007F2901DA85
:102DC00000207047962903DCC1F19601C840704786
:102DD00096398840704700F0004230F000400AD039
:102DE000C10D01F56071C0F3160042EA0151C2083D
:102DF00040071143704700200146704701F000432F
:102E000030B421F0004150EA010206D00A0DA2F5CB
:102E10006072C1F31301002A02DC30BC002070474D
:102E2000440F44EAC104C100E01830BC00EBC250BA
:102E300000F047B830B50B4601460020202201249F
:102E400009E021FA02F59D4205D303FA02F5491B78
:102E500004FA02F52844151EA2F10102F1DC30BD8E
:102E60002DE9F05F0546002092469B4688460646BF
:102E7000814640241BE0284641464746224600F052
:102E80001CFA53465A46C01A914110D311461846AF
:102E9000224600F003FA2D1A67EB01084F4622463E
:102EA0000120002100F0FAF917EB00094E41201E25
:102EB000A4F10104DFDC484631462A464346BDE81A
:102EC000F09F0029A8BF7047401C490008BF20F0B0
:102ED0000100704710B4B0FA80FC00FA0CF050EA20
:102EE000010404BF10BC704749B1CCF1200421FAA1
:102EF00004F411FA0CF118BF012121430843A3EB9C
:102F00000C01CB1D0106000A002BBEBF002010BC27
:102F1000704700EBC35010440029A4BF10BC704799
:102F2000401C490008BF20F0010010BC704710B5DC
:102F3000002B08DA401C41F1000192185B411A4352
:102F400001D120F0010010BD2DE9F04D92469B46C5
:102F500011B1B1FA81F202E0B0FA80F2203290466B
:102F600000F09CF904460F4640EA0A0041EA0B01D2
:102F700053465A46084303D120463946BDE8F08DF2
:102F8000114653EA010015D0C8F14002504600F046
:102F900094F905460E4650465946424600F07EF9E1
:102FA000084301D0012000E00020054346EAE07616
:102FB0002C4337430A984FEA4453A0EB08004FEAEA
:102FC000D4240A304FF0000244EA47544FEAD72590
:102FD00002D500200146D1E7010510196941DDE95C
:102FE000084500196941BDE8F04DA0E72DE9FE4F05
:102FF000804681EA0300C00F0C46009021F000419A
:1030000023F00045B8EB0200A94105D24046214615
:1030100090461C460B46024623F00040104304D164
:103020004046214603B0BDE8F08F270DC7F30A00E4
:10303000C3F30A510290401A0190402866DAC3F3A4
:10304000130040F4801B0098924620B10023D2EB7D
:10305000030A63EB0B0B01985946C0F1400250463E
:1030600000F01CF906460D4650465946019A00F0FC
:1030700034F910EB08006141002487EA115284EA18
:10308000E7731A433BD0009A3AB3019A012A4FEAF8
:10309000075210DC001B61EB02014FF0004202EA14
:1030A0000752CDE90042001C41F5801132462B4603
:1030B000FFF74AFFB6E7001B61EB0201001C41F578
:1030C000801300185B412018A2F5001747EB03019D
:1030D00040EAD570B6196D4111E06D084FEA360629
:1030E00045EAC0754FEA0752001B61EB0201001C64
:1030F00041F5801149084FEA30000019514132462C
:103100002B4603B0BDE8F04FFFF711BF0098012236
:1031100040000023D0EB020263EBE07300982146ED
:103120004FEAE074B8EB000061EB0401E9E783F0DB
:1031300000435BE781F0004158E72DE9FE4F81EA4B
:10314000030404F0004421F0004100944FF0000B10
:1031500023F0004350EA010402D052EA030404D1F0
:103160000020014603B0BDE8F08FC3F30A54C1F359
:103170000A552C44A4F2F3340194A0FB0254C1F389
:10318000130141F48011C3F3130343F4801301FBD3
:10319000024400FB034E840A970A44EA815447EA3A
:1031A0008357A4FB076802958D0A05FB07854FEA44
:1031B000932C04FB0C542705029D4FEA065847EA5E
:1031C0001637B5EB08056EEB070C870E920E47EA33
:1031D000811742EA8312A7FB0201B6EB0B0164EBF5
:1031E00000042B0D43EA0C335E1844EB1C50DA4606
:1031F0005146E7FB0201C5F313044FEA0B3343EAE0
:1032000014534FEA0432019C43EA0603A4F10C0470
:103210000294009CCDE900B4FFF796FEA2E7C1F34B
:103220000A52C1F3130140F2FF3341F480119A4274
:1032300002DA00200146704740F233439A42A2F27C
:10324000334202DC524200F038B800F027B80000E8
:1032500030B5002904DB4FF00044404264EB01012B
:10326000002B04DB4FF00044524264EB030399420D
:1032700008BF904230BD0000064C074D06E0E068F4
:1032800040F0010394E8070098471034AC42F6D3AD
:10329000FCF752FFE43B0008043C0008202A04DB52
:1032A000203A00FA02F1002070479140C2F1200359
:1032B00020FA03F3194390407047202A04DB203A98
:1032C00021FA02F00021704721FA02F3D040C2F146
:1032D00020029140084319467047202A06DBCB178D
:1032E000203A41FA02F043EAE07306E041FA02F3C1
:1032F000D040C2F1200291400843194670470000B7
:103300000FB4054B10B503A9044A029800F0C6F8A3
:1033100010BC5DF814FB0000EF2600083C00002004
:1033200002E008C8121F08C1002AFAD1704770478E
:10333000002001E001C1121F002AFBD170470000EC
:103340002DE9FF5FDDE90220010DDDF838B0024311
:1033500010D10F9801244CA2012808D00021009818
:103360000F9BC0E90021C0E90243BDE8FF9F6FEA5F
:103370000B01F4E7A1F2FF3144F6105041430D1464
:103380000F9801280ED0A5EB0B00401C4FF0000455
:103390003E4EDFF8FC90B0F1000AA04605DACAF113
:1033A000000717E0CBF10000F0E7074612E0F8074E
:1033B00007D02246334640464946FFF7BEFE8046C8
:1033C00089462246334610461946FFF7B6FE0446A4
:1033D0000E467F10002FEAD1DDE90201BAF1000F9D
:1033E00042464B4602DAFFF7A8FE01E0FFF73CFC3D
:1033F00004460E460022274BFFF72AFF03D84FF062
:10340000FF30014607E00022234B20463146FFF7FC
:10341000EDFDFFF704FF102409E0002C0ADB0A226F
:103420000023FFF71DFD019B30321A55641E50EA40
:103430000102F2D1641C019AC4F1110314440F9AE1
:10344000012A09D00122084301D15B450FDD4FF06D
:10345000000205F101050DE0084303D1A3EB0B05C4
:103460006D1E09E000204FF0110B0F9088E701DA84
:1034700000226D1E002A83D000980F99C0E9023106
:10348000C0E9004571E70000300000000000244062
:103490000000F03F0000F0430000E03F2DE9FF4F47
:1034A00095B09B4689460646002512E2252878D12C
:1034B0000024761CF94A2746012105943378203BE5
:1034C00001FA03F0104202D00443761CF6E730788C
:1034D0002A2811D06FF02F033078A0F13002092A8A
:1034E00016D8059A44F0020402EB820203EB420272
:1034F0001044761C0590EFE759F8042B0592002A3A
:1035000003DA504244F40054059044F00204761C5F
:1035100030782E2816D116F8010F44F004042A281A
:103520000DD06FF02F023078A0F13003092B09D8AD
:1035300007EB870302EB4303C718761CF3E759F840
:10354000047B761C30786C280FD006DC4C2817D012
:1035500068280DD06A2814D104E0742810D07A2885
:103560000FD10DE044F400140AE044F4801401E0AB
:1035700044F440147278824202D1761C04F580141F
:10358000761C307866280BD013DC582877D009DCFD
:10359000002875D04528F6D04628F4D047281AD1FF
:1035A0009FE118E0632835D0642879D0652812D1CE
:1035B00097E1702873D008DC6728F1D069286FD0B4
:1035C0006E280DD06F2806D1B5E073282CD0752851
:1035D00075D0782874D05A46179990476D1C76E1BB
:1035E000C4F30250022809D003280DD0D9F80010E6
:1035F00004280DD00D6009F1040968E1D9F8001024
:10360000EA17C1E90052F6E7D9F800100D80F2E799
:103610000D70F0E719F8041B8DF8001000208DF8EC
:103620000100EA46012003E059F804AB4FF0FF30F7
:1036300061074FF0000102D40DE008F10101884656
:10364000B9420FDA8045F8DB1AF808100029F4D1E6
:1036500008E008F1010188468142FADB1AF80810F7
:103660000029F6D105985B46A0EB080721463846AD
:10367000179A00F09EFA284400EB080507E04DE099
:103680002BE10DE01AF8010B5A4617999047B8F153
:103690000108F7D25B4621463846179A14E142E00A
:1036A0000A220092C4F302524FF0000A022A08D004
:1036B00059F804CB032A4FEAEC710AD00DE029E057
:1036C0002AE009F1070121F00702F2E802C1914660
:1036D00009E00FFA8CFC4FEAEC71042A03D14FFA8F
:1036E0008CFC4FEAEC71002907DA0A460021DCF174
:1036F000000C61EB02012D2202E0220504D52B22F1
:103700008DF80420012203E0E20701D02022F7E730
:10371000904653E00A2102E010220DE010214FF004
:10372000000A00910BE010224FF0000A44F004045C
:103730000827009203E008224FF0000A0092C4F329
:103740000252022A05D059F804CB0021032A08D0DE
:1037500009E009F1070121F00702F2E802C19146F0
:1037600005E01FFA8CFC042A01D10CF0FF0C4FF08D
:103770000008220722D5702827D0009B83F0100371
:1037800053EA0A0309D15CEA010206D030228DF81F
:1037900004208DF8050002229046009B83F0080368
:1037A00053EA0A030AD15CEA010201D1620705D596
:1037B00030228DF804204FF001087F1E582809D0D0
:1037C00037A003900EA8029013E040228DF8042049
:1037D0000122E1E737A0F4E753466046009AFFF77D
:1037E0003FFB84460398825C0298A0F1010002909E
:1037F00002705CEA0100EFD1029806A9A1EB00007B
:1038000000F1200A600702D524F4803400E001278B
:10381000574502DDA7EB0A0000E0002000EB0A019B
:10382000009005984144A0EB01000590E00306D408
:103830005B462146179A059800F0BBF9054400271E
:1038400006E001A85A46C05D179990476D1C7F1C81
:103850004745F6DBE0030CD55B462146179A0598F1
:1038600000F0A7F9054404E030205A461799904724
:103870006D1C0099481E00900029F5DC08E00298B4
:1038800002995A460078491C0291179990476D1C7D
:10389000BAF10001AAF1010AF1DC6BE1092801008B
:1038A00030313233343536373839616263646566B6
:1038B0000000000030313233343536373839414278
:1038C000434445460000000000F060F9054406F15D
:1038D0000106307800287FF4E9AD19B02846BDE82C
:1038E000F08F620700D4062709F1070222F0070CC7
:1038F000FCE80223E14603F000485FEA080C02D02E
:103900000FF27C2C0DE05FEA045C02D50FF2742C00
:1039100007E05FEAC47C02D00FF26C2C01E0AFF24A
:10392000700C4FF0FF3823F00043CDF850C06528ED
:103930000CD006DC452809D046281DD047283ED1AA
:103940003EE0662818D0672839D139E00021112FD0
:1039500001DB112000E0781CCDE9000106A90EA8CA
:10396000FFF7EEFCDDE90F010E9A039100210092B2
:1039700007F1010A04914EE04FF000400097CDE9B5
:10398000011006A90EA8FFF7DBFCDDE90F02039288
:103990000E9B11990022DDF80CA00093049219B936
:1039A00007F1010100EB010AB7EB0A0004D4C0F1F2
:1039B000FF3007F1010A0490AAEB0700019046E0EE
:1039C000012F00DA01270021112F01DD112000E075
:1039D0003846CDE9000106A90EA8FFF7B1FCDDE9E4
:1039E0000F010E9A0391002104910092BA4621071B
:1039F0000CD40399514500DA8A46BAF1010F05DD6E
:103A0000009AAAF10101515C302908D0B84202DACB
:103A100010F1040F06DA0121CDE9011017E0AAF137
:103A20000101E9E7002805DC049901440491AAEBAF
:103A3000000102E0411C514500DD8A460499A0EBDB
:103A4000010000F1010001904FF0004002902007BA
:103A500004D40198504501DBCDF8048000208DF896
:103A60004F0002980DF14F07B0F1004F25D02B20E9
:103A70000E9002984FF0020800280CDA40420290A3
:103A80002D200E9007E00A210298FFF7D3F930317C
:103A9000029007F8011DB8F10001A8F10108F2DC5D
:103AA00002980028EFD1791E0E980870307800F047
:103AB000200040F0450007F8020D12A8A0EB070017
:103AC00000F107081498007800B1012000EB0A010A
:103AD000019801EBE07105984144A0EB0100A0F1D1
:103AE00001000590E00306D45B462146179A05982D
:103AF00000F05FF805441498007820B15A461799F1
:103B0000904705F10105E00323D55B462146179A4E
:103B1000059800F04EF805441BE00498002807DBE8
:103B2000DDE90301884203DD0098405C179901E05C
:103B3000179930205A46904704986D1C401C0490F9
:103B40000198401E019004D12E205A4617999047A3
:103B50006D1CBAF10001AAF1010ADEDC05E017F8DC
:103B6000010B5A46179990476D1CB8F10001A8F156
:103B70000108F4DC5B462146179A0598A4E600008C
:103B80002D0000002B000000200000002DE9F04176
:103B9000044600251E461746880405D406E039462B
:103BA0002020B04705F10105641EF8D52846BDE880
:103BB000F0812DE9F041044600251E469046C803D9
:103BC00001D5302700E02027880405D506E04146CE
:103BD0003846B04705F10105641EF8D52846BDE812
:103BE000F0810000043C00080000002040000000BC
:103BF00020330008443C0008400000203804000046
:103C00003033000800A24A04000000000000000059
:103C10000102030406070809000000000102030472
:103C20000102030406070809020406080500000053
:103C30000000000000000000000000000000000084
:043C40000000000080
:0400000508000131BD
:00000001FF
