:060641008F4A8C4B8D4C2A
:10064700E4F54DF54EF552F551F550F54FE54A44B1
:1006570088F5BC000000000000E4F54DF54EC3E549
:100667004E954CE54D954B5078E5BC30E4FB75BC99
:1006770000AFBD7553008F54E554AE537802C333B2
:10068700CE33CED8F9FFE5BE5403FDEEF553EF4D5B
:10069700F554AB52AA51A950A84FC000C001C002DF
:1006A700C003AC4BAD4CFF1203EBAC06AD07E41235
:1006B70002C9D003D002D001D00012002D8F528E74
:1006C700518D508C4FE4F5BDF5BEE54A44E8F5BCC5
:1006D700000000000000054EE54E7082054D020641
:1006E700657F007E207D997C45AB52AA51A950A811
:1006F7004F12011EE4FBFA79807844120227120395
:0107070002EF
:0107080022CE
:0F0A8B00759DFFE4F5BD75BC807F02FE020A3E3B
:100A3E00EF1FAA0670011E4A60107C137D88ED1D03
:0A0A4E00AA0470011C4A60E880F45D
:010A5800227B
:10099400102400000000000000000000000000001F
:0809A4000000012207012300FD
:100A5900E5A2543FF5A2759850758E40E4F5897565
:0A0A69008BC0758DFED28ED2AC2238
:030023000208D1FF
:1008D100C0E0C0F0C083C082C0D075D00830983568
:1008E10074242523F8A69974242523F8E6B440023C
:1008F100D20230021E0523E523B52217C202752359
:10090100007B007A007924AD22120ACEEF6004C286
:10091100ACD200C298309904C299C201D0D0D08221
:07092100D083D0F0D0E032DA
:0D0AB800C200D2AC7B007A0079240209F75D
:03001E00A200221B
:080003002001FDD2018F9922BA
:1009F7008B588A59895AAB58AA59A95A1203836046
:100A070013055AE55A7002055914F9120383FF12A8
:050A1700000380E22253
:080709008F4D8E4C8D4B8C4A84
:10071100754E30754F30E47B0AFAF9F812047CEB20
:100721002430F554AF4DAE4CAD4BAC4AE47B0AFAE4
:10073100F9F812047C8F4D8E4C8D4B8C4AE47B0A68
:10074100FAF9F812047CEB2430F553AF4DAE4CAD01
:100751004BAC4AE47B0AFAF9F812047C8F4D8E4CBB
:100761008D4B8C4AE47B0AFAF9F812047CEB2430B5
:10077100F552AF4DAE4CAD4BAC4AE47B0AFAF9F8F9
:1007810012047C8F4D8E4C8D4B8C4AE47B0AFAF916
:10079100F812047CEB2430F551AF4DAE4CAD4BACAF
:1007A1004AE47B0AFAF9F812047C8F4D8E4C8D4B8A
:1007B1008C4A755030E4F55575560D75570AFB7A1C
:0607C10000794E0209F769
:1009C700C2B553B1DF43B220C28CD2A9D2B9538981
:1009D700FC438E805389FB438F01E4F58CF58AD263
:1009E7008CD2AF755D02755E58AF5EAE5D02095F72
:0F000E007D627C07ED1D70011C144C70F7DFF153
:01001D0022C0
:10095F00D3EF9450EE941740047E177F50C3EF945B
:10096F0020EE940050047E007F20EF2490FDEE34A3
:10097F00E8FCC3E49FFFE49EC2AFF55F8F608C5B22
:04098F008D5CD2AFFA
:010993002241
:03000B00020A7373
:100A7300C0E030B509E55BF58C855C8A8007E55FEE
:080A8300F58C85608AD0E03299
:10092800556172743120496E6974204F4B20210D36
:100938000A0041444320496E6974204F4B20210D21
:100948000A0050574D20496E6974204F4B20210DE5
:070958000A000D0A00200057
:1009AC0010370000000000000000000000000000F4
:0A09BC00000002351770024700200A
:10085300D2AF120A1C120A597BFF7A0979281209AE
:10086300F7120A8B7BFF7A09793A1209F71209C743
:100873007BFF7A09794A1209F712001E5003120A04
:10088300B87BFF7A09795A1209F7AE47AF48E4FCFF
:10089300FD1207097BFF7A09795D1209F77D2C7C2C
:1008A30001E4FF120641120709740A2548F548E4DA
:1008B3003547F547C3E5489536E547953540067511
:0E08C3004700754820AF48AE4712095F80AB72
:100A1C00E4F594F593F592F591F596F595F5B2F517
:100A2C00B1F5B4F5B3F5CAF5C9F5CCF5CBF5E2F5EE
:020A3C00E122B5
:080AC500120383751E00F51FEA
:010ACD002206
:080ACE001203832DF5497F019D
:010AD60022FD
:0E0A9A0000007F057E347DC3DDFEDEFCDFFA4A
:010AA800222B
:0E0AA90000007F2B7E067DCBDDFEDEFCDFFA3B
:010AB700221C
:0E052D008F138E128D118C108B148A15891667
:10053B008F1D8E1C8D1B8C1AE4FFFEFDFCAB13AACA
:10054B0012A911A810C312051C5013AF13AE12AD94
:10055B0011AC1012050E8F138E128D118C10E4F549
:10056B0017E47B0AFAF9F8AF13AE12AD11AC101207
:10057B00047CEB2430AB14AA15A916AE1705178E05
:10058B00827583001203C9AF13AE12AD11AC10E428
:10059B007B0AFAF9F812047C8F138E128D118C10D2
:1005AB00E4FBFAF9F8C312051C40B6E4FFFEFDFCB0
:1005BB00AB1DAA1CA91BA81A12051C5014AB14AA1C
:1005CB0015A916AF1705178F82758300742D1203AB
:1005DB00C9851782758300A3AB14AA15A916E4125B
:1005EB0003C91517851718E517C313FFE518C39F24
:1005FB004043E5179518FFE49400AB14AA15A91610
:10060B008F82F58312039CF519851882758300126E
:10061B00039CFFE518FDE517C39DFDE494008D8257
:10062B00F583EF1203C9851882758300E519120350
:05063B00C9151880B292
:010640002297
:1000260002036EE86480F8E933E83360110460F097
:10003600ED33EC337009E8FCE9FDEAFEEBFF220440
:1000460060DED3EB9FEA9EE99DE8C2E78CF0C2F73B
:1000560095F0400CE8CCF8E9CDF9EACEFAEBCFFB07
:1000660012033985D0F05804700320D5B3E8047024
:10007600075002B2D502037892D5EC0460F7E4CCBF
:10008600C0E0C398F8603B94186008400DD0E0FBD0
:10009600020350E4FBFAC9FC8028E830E406E4C910
:1000A600FBE4CAFCE830E305E4C9CACBFCE8540724
:1000B6006010F8C3E913F9EA13FAEB13FBEC13FC2F
:1000C600D8F130F52FC3E49CFCEF9BFFEE9AFEEDD2
:1000D60099FDD0E0FBEF4E4D4C701222DB0302037C
:1000E60075EC2CFCEF33FFEE33FEED33FDED30E720
:1000F600EB020350EF2BFFEE3AFEED39FDD0E0FBAD
:1001060050130BBB0003020378ED13FDEE13FEEF55
:0801160013FFEC13FC0203507F
:10011E00EC4D6011E8497017ED33EC3304600DE4DB
:10012E00FCFFFEFD22E933E8330470F802036E1281
:10013E00033958046009E4CC248150062850090282
:10014E000378284003020375C0E0EB4A7044B9807F
:10015E0006D0E0FB020364EF4E701CBD8008EBFF7F
:10016E00EAFEE9FD80EBE98DF0A4FEE5F002020760
:10017E00E9CDF9EAFEEBFFEF89F0A4FCE5F0CE89BC
:10018E00F0A42EFFE435F0CD89F0A42DFEE435F079
:10019E008067EF4E7005BD80D780C3EF8BF0A4ACA7
:1001AE00F0EE8BF0A42CFCE435F0F8EF8AF0A42CE2
:1001BE00E5F038FCE433CB8DF0A42CFCE5F03BF8F5
:1001CE00EE8AF0A42CFCE5F038F8E433CF89F0A4E5
:1001DE002CFCE5F038CF3400CE89F0A42FFFE5F0EB
:1001EE003EFEE433C98DF0A42EFEE5F039CD8AF043
:1001FE00A42FFFE5F03EFEE43DFD33D0E0FB5007BB
:10020E000BBB000F020378EC2CFCEF33FFEE33FE3A
:06021E00ED33FD02035068
:10022400020378EC5D046005E85904700302036E70
:10023400120339580460F6EC4860F2EC7004FDFED9
:10024400FF22C860DB2481C85009C39860025006AD
:100254000203759850CAF582E9294B4A7005AB82AE
:1002640002036475F0007C1A7880C3EF9BEE9AED6C
:1002740099400DC3EF9BFFEE9AFEED99FDE842F025
:10028400DC23ACF0D0E0FFD0E0FED0E0FDAB822078
:10029400E7101BEB60BAEC2CFCEF33FFEE33FEED02
:1002A40033FD020350E803F830E705C0F075F000B1
:1002B400EF2FFFEE33FEED33FD40B830E7C280AAE6
:1002C40075F020800E75F010800575F0087D007EB5
:1002D400007F003392D530D50312050EEC33401065
:1002E400EF33FFEE33FEED33FDEC33FCD5F0ED22BE
:0E02F400E5F0247EA2D513CC92E7CDCEFF22FA
:10030200EDD2E7CD33EC3392D524814006E4FFFEF3
:10031200FDFC22FCE4CFCECDCC24E0501174FF8052
:10032200EDC3CC13CCCD13CDCE13CECF13CF0470EF
:07033200F030D5DE02050EDC
:10033900E9D2E7C933E833F892D5EDD2E7CD33EC0A
:0703490033FC5002B2D52283
:10035000EC30E7100FBF000C0EBE00080DBD00040E
:100360000BEB6014A2D5EB13FCED92E7FD2274FFBA
:10037000FCFDFEFF22E480F8A2D574FF13FC7D8013
:03038000E480EF27
:030000000207C72D
:0C07C700787FE4F6D8FD75816002080E12
:10038300BB010689828A83E0225002E722BBFE0278
:09039300E32289828A83E49322AB
:10039C00BB010CE58229F582E5833AF583E0225016
:1003AC0006E92582F8E622BBFE06E92582F8E22260
:0D03BC00E58229F582E5833AF583E493227A
:1003C900F8BB010DE58229F582E5833AF583E8F06A
:1003D900225006E92582C8F622BBFE05E92582C816
:0203E900F222FE
:1003EB00BC000BBE0029EF8DF084FFADF022E4CCF6
:1003FB00F875F008EF2FFFEE33FEEC33FCEE9DECBF
:10040B00984005FCEE9DFE0FD5F0E9E4CEFD22ED04
:10041B00F8F5F0EE8420D21CFEADF075F008EF2F4E
:10042B00FFED33FD4007985006D5F0F222C398FD3F
:05043B000FD5F0EA22DC
:1004400075F008758200EF2FFFEE33FECD33CDCC73
:1004500033CCC58233C5829BED9AEC99E5829840F6
:100460000CF582EE9BFEED9AFDEC99FC0FD5F0D6D3
:10047000E4CEFBE4CDFAE4CCF9A88222B800C1B9FD
:100480000059BA002DEC8BF084CFCECDFCE5F0CB3B
:10049000F97818EF2FFFEE33FEED33FDEC33FCEB74
:1004A00033FB10D703994004EB99FB0FD8E5E4F92F
:1004B000FA227818EF2FFFEE33FEED33FDEC33FC1C
:1004C000C933C910D7059BE99A4007EC9BFCE99A10
:1004D000F90FD8E0E4C9FAE4CCFB2275F010EF2F55
:1004E000FFEE33FEED33FDCC33CCC833C810D70755
:1004F0009BEC9AE899400AED9BFDEC9AFCE899F890
:0E0500000FD5F0DAE4CDFBE4CCFAE4C8F92222
:0E050E00C3E49FFFE49EFEE49DFDE49CFC22FE
:10051C00EB9FF5F0EA9E42F0E99D42F0E89C45F035
:01052C0022AC
:1007D300020853E493A3F8E493A34003F68001F2E1
:1007E30008DFF48029E493A3F85407240CC8C33327
:1007F300C4540F4420C8834004F456800146F6DFF6
:10080300E4800B0102040810204080900994E47EE8
:10081300019360BCA3FF543F30E509541FFEE493EA
:10082300A360010ECF54C025E060A840B8E493A3B1
:10083300FAE493A3F8E493A3C8C582C8CAC583CADC
:10084300F0A3C8C582C8CAC583CADFE9DEE780BE94
:0109C6000030
:00000001FF
