:020000040800F2
:10000000E00400209D010008F5040008F704000842
:10001000FB040008FF0400080305000800000000BE
:1000200000000000000000000000000007050008BC
:1000300009050008000000000B0500080D05000878
:10004000B7010008B7010008B7010008B7010008B0
:10005000B7010008B7010008B7010008B7010008A0
:10006000B7010008B7010008B7010008B701000890
:10007000B7010008B7010008B7010008B701000880
:10008000B7010008B701000815050008B70100080E
:10009000B7010008B7010008B7010008B701000860
:1000A000B7010008B7010008B7010008B701000850
:1000B0007305000889050008B7010008B7010008AA
:1000C000B7010008B7010008B7010008B701000830
:1000D000B701000817050008B7010008B7010008BC
:1000E000B7010008B7010008B7010008B701000810
:1000F000B7010008B7010008000000000000000080
:100100000000000000000000B7010008B70100086F
:100110000000000000000000B7010008B70100085F
:10012000B7010008B7010008B7010008B7010008CF
:10013000B70100089F050008B7010008B7010008D3
:10014000B7010008000000000000000000000000EF
:10015000000000000000000000000000000000009F
:100160000000000000000000B7010008B70100080F
:10017000B701000800000000B701000800000000FF
:1001800000000000B7010008DFF80CD004F0ACF864
:1001900000480047B9030008E004002006488047F3
:1001A00006480047FEE7FEE7FEE7FEE7FEE7FEE75C
:1001B000FEE7FEE7FEE7FEE79D0200088901000872
:1001C0001CB50020019000907248006840F4803017
:1001D0007049086000BF6F48006800F4003000906C
:1001E0000198401C0190009818B90198B0F5A06FD3
:1001F000F1D16848006810F4003F02D0012000905F
:1002000001E0002000900098012836D102206249C8
:100210000860604840685F49486008464068486038
:100220000846406840F4806048600846406820F412
:100230007C1048600846406840F4E8104860084672
:10024000006840F08070086000BF5248006810F0FD
:10025000007FFAD04F48406820F003004D494860C5
:100260000846406840F00200486000BF49484068C6
:1002700000F00C000828F9D10FE04FF4E011002045
:1002800001F0CBFC012001F0D6FC02E0022001F0DD
:10029000E4FC01F0EBFC0828F8D11CBD10B53F4888
:1002A000006840F470003D4908603A48006840F03A
:1002B0000100384908600846406800F47F00486043
:1002C0000846006836490840324908600846006818
:1002D00020F4802008600846406820F4FE00486052
:1002E0000846C06A20F00F00C8620846006B2D491E
:1002F00008402849086300208860FFF761FF4FF03D
:10030000006026498039086010BD30B5002100200A
:10031000002200231F4C646804F00C0121B1042961
:1003200006D0082925D107E01F4C204D2C6024E081
:100330001D4C1E4D2C6020E0164C646804F47010B7
:10034000144C646804F48032022404EB904022B917
:10035000174C4443154D2C600AE00E4CE46A04F03F
:100360000F04631C104CB4FBF3F444430F4D2C609A
:1003700003E00D4C0D4D2C6000BF00BF054C6468C0
:10038000C4F303140B4D295D084C2468CC40074D81
:100390002C6030BD001002400020024088ED00E0DB
:1003A000FFFFF6FE8C0FFF0F00127A000000002006
:1003B00000093D00040000208CB0684601F0D7FC25
:1003C0004FF47A720198B0FBF2F1481EB0F1807FD1
:1003D00000D31BE0481E4FF0E022506150170F225F
:1003E000002807DA13071D0E254B00F00F04241F09
:1003F0001D5503E013071C0E224B1C5400BF0020A8
:100400004FF0E02290610720106100BF00F00AF970
:100410001DA003F07BFF1FA0019903F077FF22A02E
:1004200003F074FF01F04FFA24A003F06FFF00F017
:10043000CFFF27A003F06AFF00F0C0FC27A003F065
:1004400065FF09E000F0FFFB08B100F058F901F08A
:1004500037F908B100F05EFFF4E701B524490098D0
:10046000086000BF224800680028FBD108BD204872
:10047000006820B11E480068401E1D490860704792
:1004800018ED00E000E400E057656C636F6D6521D6
:10049000210A000053797374656D20436C6F636BA0
:1004A0005B25645D0A0000005553415254315F439F
:1004B0006F6E666967204F4B0A00000054494D3249
:1004C0005F50574D5F496E6974204F4B0A00000022
:1004D000504944496E6974204F4B0A0053444144CB
:1004E00043315F436F6E666967204F4B0A0000001F
:1004F00014000020704700BFFEE700BFFEE700BF0A
:10050000FEE700BFFEE770477047704710B5FFF782
:10051000AEFF10BD704710B52E492F4802F000F80D
:1005200030B32D4801F0FDFEC4B22C482C490978A7
:1005300044542B490978405C402802D101202949C4
:10054000087028480078012812D125480078401CFE
:100550002349087024480078401E0978884207D152
:100560000020204908701E49087001201F490870AA
:1005700010BD10B50121880703F0A2F918B10121BF
:10058000880703F0AEF910BD10B50121184803F03B
:1005900097F918B10121164803F0A3F910BD38B539
:1005A00000240221134802F05FFC90B16946114813
:1005B00002F007FC04460098A0F5A021203901D1E3
:1005C0000D4844800098A0F5C021403901D10A4867
:1005D000048038BD0501050000380140600000209E
:1005E000190000201C000020180000201B00002023
:1005F00000040040006001402000002008B54FF4D6
:10060000E06003F049FA25208DF8000000208DF805
:10061000010001208DF802008DF80300684603F008
:1006200040FA08BD00B589B00121480401F0BEFCC4
:100630000121880301F0C7FC07220921C80601F047
:100640002DFA07220A214FF0904001F027FA4FF4CB
:10065000C060079002208DF8200000208DF8220055
:1006600001208DF8230003208DF8210007A94FF009
:10067000904001F08CF94FF4E1300190002002909D
:100680000390049006900C20059001A9FC4801F00D
:100690002CFD0122FB49FA4801F009FF0121F8482D
:1006A00001F0A6FDFFF7AAFF09B000BD70B5044632
:1006B0000D46E1B2F24801F030FE00BF8021F04863
:1006C00001F023FF0028F9D0204670BD10B5044684
:1006D00000BF2021EA4801F018FF0028F9D0E848BF
:1006E00001F01FFE10BD014608784A7850408A7814
:1006F0005040CA785040704790ED000A704700B5EE
:100700002DED048B81B00020DF490870DF48807830
:100710008DF80000DD48C0788DF80100DB480079D5
:100720008DF80200D94840798DF803006846FFF73C
:10073000E3FFB0EE408AD5484078622873D018DCD9
:10074000352874D008DCA0F1300005286DD2DFE830
:1007500000F01A2E42568800382867D004DC36286C
:100760007CD0372861D17FE0392872D06128F9D157
:100770008CE063380A28E9D2DFE800F0B0C4DAF48C
:10078000F3F2F1F0EFF5B0EE480A00F0C5FE18EE16
:10079000100A03F0D2FB41EC100BB0EE409AF0EEE1
:1007A000609A53EC192BBAA003F0B0FD46E2B0EE0C
:1007B000480A00F038FF18EE100A03F0BEFB41ECC7
:1007C000100BB0EE409AF0EE609A53EC192BB5A0E6
:1007D00003F09CFD32E2B0EE480A00F035FF18EE5F
:1007E000100A03F0AAFB41EC100BB0EE409AF0EEB9
:1007F000609A53EC192BB1A003F088FD1EE2B0EE15
:10080000480A00F032FF18EE100A03F096FB41ECA4
:10081000100BB0EE409AF0EE609A53EC192BADA09D
:1008200003F074FD0AE245E001E003E222E0B0EEED
:10083000480A00F0DDFE18EE100A03F07EFB41ECE2
:10084000100BB0EE409AF0EE609A53EC192B01E0D9
:1008500004E015E0A5A003F059FDEFE100F03EFA39
:10086000ECE100F0F0FBE9E100F010FFA4A003F0E0
:100870004DFDE3E100F015FFA5A003F047FDDDE12C
:1008800000F01AFFA6A003F041FDD7E1B0EE480A40
:1008900000F0E4F918EE100A03F04FFB41EC100BE6
:1008A000B0EE409AF0EE609A53EC192B9FA003F043
:1008B0002DFDC3E1B0EE480A00F0B8FB18EE100AB7
:1008C00003F03BFB41EC100BB0EE409AF0EE609A67
:1008D00053EC192B9BA003F019FDAFE1B0EE480AD1
:1008E00000F00EFE18EE100A03F027FB41EC100B8F
:1008F000B0EE409AF0EE609A53EC192B96A003F0FC
:1009000005FD9BE1BCEEC80A10EE100A00F0E4FF02
:1009100018EE100A03F011FB41EC100BB0EE409AF8
:10092000F0EE609A53EC192B90A003F0EFFC85E1F8
:10093000B0EE480A00F080FB18EE100A03F0FDFA52
:1009400041EC100BB0EE409AF0EE609A53EC192B8C
:100950008DA003F0DBFC71E105E07CE067E052E094
:100960003DE028E013E0B0EE480A00F0CFFD18EEBD
:10097000100A03F0E2FA41EC100BB0EE409AF0EEF0
:10098000609A53EC192B87A003F0C0FC56E1B0EE3F
:10099000480A00F0C7FD18EE100A03F0CEFA41EC49
:1009A000100BB0EE409AF0EE609A53EC192B83A036
:1009B00003F0ACFC42E1B0EE480A00F0C4FD18EED2
:1009C000100A03F0BAFA41EC100BB0EE409AF0EEC8
:1009D000609A53EC192B7EA003F098FC2EE1B0EE48
:1009E000480A00F0C1FD18EE100A03F0A6FA41EC27
:1009F000100BB0EE409AF0EE609A53EC192B79A0F0
:100A000003F084FC1AE1B0EE480A00F0BEFD18EED7
:100A1000100A03F092FA41EC100BB0EE409AF0EE9F
:100A2000609A53EC192B74A003F070FC06E1B0EE51
:100A3000480A00F0BBFD18EE100A03F07EFA41EC04
:100A4000100BB0EE409AF0EE609A53EC192B6FA0A9
:100A500003F05CFCF2E0B0EE480A00F0B8FD18EEDE
:100A6000100A03F06AFA41EC100BB0EE409AF0EE77
:100A7000609A53EC192B6AA003F048FCDEE00000FA
:100A800000380140050105001B0000206000002027
:100A9000536574536574506F696E743A252E3366CE
:100AA0000A000000536574504944706172616D5FC3
:100AB000505F696E633A252E33660A0053657450A1
:100AC0004944706172616D5F495F696E633A252EBA
:100AD00033660A00536574504944706172616D5FFA
:100AE000445F696E633A252E33660A00536574507D
:100AF000574D56616C75653A252E33660A00000025
:100B000053657454436C6F7365204F4B0A000000AB
:100B1000536574544F70656E204F4B0A00000000FF
:100B200053657454504944204F4B0A005365745622
:100B30006F7461676554696D65733A252E33660A73
:100B4000000000005365745049444D6F64653A25B8
:100B50002E33660A00000000536574504944506506
:100B600072696F643A252E33660A000054494D328B
:100B70005F5365745F5072657363616C65723A258B
:100B80002E33660A00000000536574504944566FC6
:100B9000746167654368616E656C3A252E33660A39
:100BA00000000000536574504944546872656448FD
:100BB0006F6C643A252E33660A0000005365744654
:100BC0006F7277617264413A252E33660A00000025
:100BD000536574466F7277617264423A252E3366AC
:100BE0000A000000536574466F7277617264433A7D
:100BF000252E33660A0000005365744261636B77EB
:100C0000617264413A252E33660A000053657442CE
:100C100061636B77617264423A252E33660A000085
:100C20005365744261636B77617264433A252E3376
:100C3000660A000005A003F069FB00BF00BF01B019
:100C4000BDEC048B00BD044800787047756E6B6E78
:100C50006F7720636D640A001B000020FCEEC00A61
:100C600010EE900ADE4908807047014600220020FD
:100C700000BF04E0DB4B33F911301844521CD84B51
:100C80001B889A42F6DB00EE100AF8EEC00AD44B3D
:100C90001B8800EE103AB8EE401A80EE810A7047C9
:100CA00010B504469FEDD00AF0EE401A2046FFF73B
:100CB000DCFFDFEDCE0A30EE200ADFEDCD0A20EEBC
:100CC000200ADFEDCC0A80EE201AB0EE000A21EEF9
:100CD000000AF0EE401AB0EE610A10BD30B52DEDFD
:100CE000048B83B000F0ACF904460120FFF7D8FF75
:100CF00010EE105A284603F020F941EC100BB0EE2C
:100D0000408AF0EE608A0020FFF7CAFF10EE105A0A
:100D1000284603F012F941EC100BB0EE409AF0EEC9
:100D2000609A02948DED008B53EC192BB2A003F066
:100D3000EDFA03B0BDEC048B30BD2DE9F041DAB023
:100D40000546A74804880026002205E0A54830F89B
:100D500015002DF81200521CB42AF7D3002318E016
:100D6000002111E03DF911C0481C3DF910008445F7
:100D700009DD3DF91170481C3DF810002DF81100F7
:100D8000481C2DF81070491CC3F1B4008842E9D802
:100D90005B1CB32BE4D3224603E03DF9120006446A
:100DA000521CC4F1B4009042F7D8B420A0EB440028
:100DB000B6FBF0F000B25AB0BDE8F08110B588B0D3
:100DC00000240121080601F0FEF80121080701F0C6
:100DD00007F90121480202F0F4FE4FF0284000F02C
:100DE00071FF0121880401F0E1F803208DF80C0067
:100DF00000208DF80F000320029002A9824800F025
:100E0000C6FD002001F064FF0520FFF726FB01214D
:100E10007E4801F03CFF01217C4801F043FF1E2485
:100E200000BF4FF00041794802F01EF810B9601E73
:100E30000400F6D114B9012008B010BD4FF0406095
:100E40000490002005900690079004AA00216F48A6
:100E500001F0F9FE00226E496C4801F009FF002202
:100E60006C496A4801F004FF6B49684801F077FF5C
:100E70000121664801F081FF0021644801F012FF62
:100E80003D208DF8040000208DF805008DF8060047
:100E900001208DF8070001A802F003FE00215B4845
:100EA00001F01EFF594801F022FF4FF4F03400BF5B
:100EB0000121564801F0D8FF10B9601E0400F7D197
:100EC0000CB90220B8E701220221504801F0C3FF0B
:100ED0004E4801F03FFF0020AEE71CB50121084657
:100EE00001F064F801214D4801F06DF802200090F6
:100EF00003208DF804006946434800F048FD1CBDFE
:100F000000B58FB0464801F039FD46480490464888
:100F10000590002006900120ADF81C0000200890EC
:100F200009904FF480700A9080000B9020200C9064
:100F300000020D9000200E9004A9394801F0C0FD78
:100F40000121374801F0E7FD00208DF80000012065
:100F50008DF801004FF460200190002002900120E4
:100F60008DF80C0069462F484C3801F013FB4FF404
:100F7000804000F09CFE05230122092129484C38BD
:100F800001F068FB012127484C3801F0FFFB0121EB
:100F900024484C3801F027FB22484C3801F033FB41
:100FA00000BF20484C3801F0D8FC0028F9D11D487A
:100FB0004C3801F023FB00BF1A484C3801F0C3FC49
:100FC0000028F9D1012117484C3801F00CFB0FB073
:100FD00000BD10B5FFF781FFFFF792FF10BD0000C5
:100FE0002600002020000020000000000000004734
:100FF00000003C4500FF7F474050252E33662C25DE
:101000002E33662C25640A0000040048006001406D
:1010100040000600200005006000070000020400F8
:10102000080002404C24014024000020FCEEC00ACD
:10103000FE48C0ED000A7047FD4880ED000A704789
:10104000FC48C06A704700B58BB0FA48006AF9499D
:10105000496BF84A9269891AF64AD269F54B9B693D
:10106000CDE90732CDE90910F248C06AF149496B70
:10107000F04A926BCDE904210690EE4890ED040B06
:101080008DED020B90ED020B8DED000B90ED001B32
:10109000B0EE410AF0EE610A53EC102BE6A003F02B
:1010A00035F9EF4890ED0A0B8DED080B90ED080B2C
:1010B0008DED060B90ED060B8DED040B90ED040B02
:1010C0008DED020B90ED020B8DED000B90ED001BF2
:1010D000B0EE410AF0EE610A53EC102BE1A003F0F0
:1010E00015F90BB000BD2DE9F0412DED0C8B044638
:1010F0000D46606B461BE06902F0EFFE41EC100B01
:10110000B0EE40BAF0EE60BA94ED041BB0EE410AC6
:10111000F0EE610A53EC102B51EC1B0B02F06BFE4E
:1011200041EC100BB0EE409AF0EE609AA06902F02C
:10113000D4FE41EC100BB0EE40DAF0EE60DA94ED44
:10114000021BB0EE410AF0EE610A53EC102B51EC99
:101150001D0B02F050FE41EC100BB0EE40BAF0EE69
:1011600060BA304602F0B9FE41EC100BB0EE40DA46
:10117000F0EE60DA94ED001BB0EE410AF0EE610A89
:1011800053EC102B51EC1D0B02F035FE41EC100B13
:10119000B0EE40CAF0EE60CA53EC1B2B51EC1C0BB6
:1011A00002F023FE41EC100BB0EE40AAF0EE60AA74
:1011B00053EC192B51EC1A0B02F076FD41EC100B9D
:1011C000B0EE408AF0EE608A51EC180B02F096FE09
:1011D0000746A069E061A661E06A3844E0623846EB
:1011E000BDEC0C8BBDE8F0812DE9F0412DED0E8BAF
:1011F00004460E46606B871BE06902F06EFE41EC10
:10120000100BB0EE40CAF0EE60CA9FEDA30B53EC9A
:10121000102B51EC1C0B02F0EEFD41EC100BB0EE6C
:1012200040AAF0EE60AAA06902F057FE41EC100B54
:10123000B0EE40EAF0EE60EA9FED990B53EC102B14
:1012400051EC1E0B02F0D7FD41EC100BB0EE40CA82
:10125000F0EE60CA384602F040FE41EC100BB0EEF2
:1012600040EAF0EE60EA9FED900B53EC102B51EC4E
:101270001E0B02F0C0FD41EC100BB0EE40DAF0EEB8
:1012800060DA53EC1C2B51EC1D0B02F0AEFD41EC6F
:10129000100BB0EE40BAF0EE60BA53EC1A2B51ECE2
:1012A0001B0B02F001FD41EC100BB0EE409AF0EE8A
:1012B000609A94ED001BB0EE410AF0EE610A53EC27
:1012C000102B51EC190B02F096FD41EC100BB0EE17
:1012D000408AF0EE608A51EC180B02F00FFE0546D2
:1012E000A069E061A761281E01DB014600E04142E0
:1012F000226B914206D9002D01DD206B01E0206BAD
:1013000040420546E06A2844E0622846BDEC0E8B68
:10131000BDE8F08170B500244448006810B1012890
:101320001CD10DE062490878FFF7BAFCBDEEC00A97
:1013300010EE105A29463F48FFF756FF04461BE0BF
:101340005B490878FFF7ACFCBDEEC00A10EE105AFE
:1013500029463848FFF7C7FE04460DE0544908788F
:10136000FFF79EFCBDEEC00A10EE105A2946314828
:10137000FFF7B9FE044600BF00BF2E48C06A47F61B
:10138000F671884202DD08462A49C8622948C06AC7
:1013900042F21071884202DA08462649C86225499D
:1013A000C86A00F09FFA251E01DB294600E0694269
:1013B00000EE101AB8EE400A1D49D1ED000A20EEE9
:1013C000200ABCEEC00A10EE100AFFF746F870BD06
:1013D00010B54021174802F05CFC3021204802F093
:1013E00058FC9FED340B134880ED000B9FED330B41
:1013F00080ED020B9FED330B80ED040B00200D49B7
:10140000C8624FF47A604863002088636420C86330
:101410002E4848620A20886241F2883008639FEDB6
:10142000270B0F4880ED000B52E000002C0000203D
:101430003400002070000020252E33662C252E332A
:10144000662C252E33662C25642C25642C25642CD3
:1014500025642C25642C25642C25640A00000000DA
:10146000B000002046413A252E33662C46423A25EC
:101470002E33662C46433A252E33662C42413A25BC
:101480002E33662C42423A252E33662C42433A25AF
:101490002E33660A00000000000000000000F43F48
:1014A0000000000000000C409A9999999999034016
:1014B0002800002000000000000014400000000090
:1014C0000000000000000000000008403F420F0044
:1014D0001FED060B80ED020B1FED080B80ED040BDA
:1014E0001FED0A0B80ED060B1FED0C0B80ED080BBA
:1014F0001FED0E0B80ED0A0B10BDBB48C06B704793
:10150000FCEEC00AB848C0ED0F0A7047FCEEC00AF6
:10151000B548C0ED0C0A7047FCEEC00AB248C0EDF9
:101520000D0A704710B52DED028BB0EE408A18EE13
:10153000100A02F002FD41EC100BAC4880ED000BEC
:10154000BDEC028B10BD10B52DED028BB0EE408AC4
:1015500018EE100A02F0F1FC41EC100BA34880EDEC
:10156000020BBDEC028B10BD10B52DED028BB0EE61
:10157000408A18EE100A02F0E0FC41EC100B9B4888
:1015800080ED040BBDEC028B10BD10B52DED028B70
:10159000B0EE408A18EE100A02F0CFFC41EC100BBE
:1015A000924880ED060BBDEC028B10BD10B52DED01
:1015B000028BB0EE408A18EE100A02F0BEFC41EC3D
:1015C000100B8A4880ED080BBDEC028B10BD10B5E6
:1015D0002DED028BB0EE408A18EE100A02F0ADFC41
:1015E00041EC100B814880ED0A0BBDEC028B10BD65
:1015F00010B52DED028BB0EE408ABCEEC80A10EE9D
:10160000104A47F6F670844200D9044642F2107040
:10161000844200D20446204600F064F97248C46255
:10162000BDEC028B10BD10B52DED028BB0EE408AE3
:1016300018EE100A02F081FC41EC100B6A4880EDB4
:10164000000BBDEC028B10BD10B52DED028BB0EE82
:10165000408A18EE100A02F070FC41EC100B624850
:1016600080ED020BBDEC028B10BD10B52DED028B91
:10167000B0EE408A18EE100A02F05FFC41EC100B4D
:10168000594880ED040BBDEC028B10BD10B5002055
:101690005749087042F210705349C86200F022F9AD
:1016A00010BD10B500205249087047F6F6704E493B
:1016B000C86200F017F910BD01204D49087070474D
:1016C0004B480078704770B52DED028B04460D46EF
:1016D000002D41DD454890ED001BB0EE410AF0EED3
:1016E000610A51EC100B02F03BFC00EE900A00EE98
:1016F000104AB8EE400A60EE800A00EE104AB8EEDA
:10170000400A20EE808A394890ED021BB0EE410A73
:10171000F0EE610A51EC100B02F022FC00EE900A90
:1017200000EE104AB8EE400A00EE808A2F4890ED95
:10173000041BB0EE410AF0EE610A51EC100B02F00E
:101740000FFC00EE100A38EE000ABCEEC00A10EEE4
:10175000100ABDEC028B70BD244890ED061BB0EE64
:10176000410AF0EE610A51EC100B02F0F9FB00EEB9
:10177000900A00EE104AB8EE400A60EE800A00EED1
:10178000104AB8EE400A20EE808A184890ED081BF7
:10179000B0EE410AF0EE610A51EC100B02F0E0FBF2
:1017A00000EE900A00EE104AB8EE400A00EE808A81
:1017B0000E4890ED0A1BB0EE410AF0EE610A51ECC2
:1017C000100B02F0CDFB00EE100A38EE000ABCEE62
:1017D000C00A10EE100ABCE70146002901DD0846E8
:1017E00070474842FCE7000070000020B000002075
:1017F000300000201CB50121480400F0D7FB022076
:1018000000908DF8040003208DF8050000208DF86D
:10181000070069464FF0904000F0B9F81CBD08B5CC
:101820004FF4C06002F038F91C208DF80000002051
:101830008DF8010002208DF8020001208DF80300D0
:10184000684602F02EF908BD10B588B004460121A3
:10185000084600F0C5FB4FF400400690A0B2ADF87A
:1018600014000020ADF81C00ADF8160005A94FF0DB
:10187000804001F0D3FB6020ADF800000120ADF8FE
:10188000020000200290ADF80C0069464FF0804045
:1018900001F0C3FC0821C80601F0CFFD0121880733
:1018A00001F02AFC012211464FF0904000F0F6F8BA
:1018B0000121880701F03EFC01221146900701F04A
:1018C000E8FF08B010BD10B5FFF794FF0020FFF748
:1018D000BBFFFFF7A4FF10BD10B504462046FFF77D
:1018E000B3FF10BD10B5044621464FF0804001F013
:1018F0005DFD10BD10B50446B4F1904F09D1012132
:10190000480400F07AFB00214FF4003000F075FB32
:101910003CE07448844208D10121000200F06DFBD4
:101920000021200200F069FB30E06F48844208D1BA
:101930000121000200F061FB0021200200F05DFBAC
:1019400024E06A48844209D10121080500F055FBD2
:1019500000214FF4801000F050FB17E064488442EF
:1019600008D10121400200F048FB0021600200F094
:1019700044FB0BE05F48844208D10121880500F058
:101980003CFB00214FF4800000F037FB10BDF0B5A8
:101990000A4600210023002400BF3DE0012505FA8E
:1019A00001F3156805EA03049C4234D11579012D31
:1019B00002D01579022D16D185684F000326BE404E
:1019C000B543856055794E00B540866835438560DE
:1019D000868801258D40AE438680868895798D4026
:1019E000ADB22E43868005684F000326BE40B54346
:1019F000056015794E00B540066835430560C56839
:101A00004F000326BE40B543C560D5794E00B540B2
:101A1000C6683543C560491C1029BFD3F0BD4FF6D9
:101A2000FF7101600021017102214171002181716A
:101A3000C171704708B54FF480320092009A0A4392
:101A40000092009AC261C161009AC261C2690092AB
:101A5000C269009208BD02460020138A0B4201D0E1
:101A6000012000E0002070470146088A70470246C6
:101A70000020938A0B4201D0012000E00020704733
:101A80000146888A704781617047018570470AB1B5
:101A9000816100E00185704781827047F0B50023C5
:101AA00000244D07ED0E02FA05F3CE1000F12005DB
:101AB00055F826504E07F70E0F26BE40B543CF10FF
:101AC00000F1200646F82750CE1000F1200555F809
:101AD000265045EA0304CE1000F1200545F82640C3
:101AE000F0BD00000004004800080048000C004859
:101AF0000010004800140048F848006840F0010059
:101B0000F64908600846406800F47F0048600846CF
:101B10000068F3490840F14908600846006820F46D
:101B2000802008600846406820F4FE0048600846AF
:101B3000C06A20F00F00C8620846006BE9490840FF
:101B4000E64908630020886070470021E34A9170ED
:101B500011468870704710B501460022002300200E
:101B60004A1112B9DD4C236806E0012A02D1DB4C90
:101B7000236A01E0D94C636A01F01F0201249440FA
:101B80001C4201D0012000E0002010BD38B500202B
:101B900000900024002500BF1120FFF7DCFF054660
:101BA0000098401C00900098B0F5A06F01D0002D67
:101BB000F2D01120FFF7CFFF08B1012400E000248C
:101BC000204638BD01460020C44A106820F0F800C5
:101BD00040EAC10010607047C34908607047BF49C0
:101BE000096A21F00101BD4A11621146096A21F01A
:101BF000040111621146096A014311627047B74935
:101C0000096A21F01801B54A11621146096A0143B7
:101C100011627047B54908607047B04A526822F4B3
:101C20007412AE4B5A601A46526840EA01031A43D6
:101C3000AA4B5A607047AC490866704701460020BD
:101C4000A64AD06A20F00F000843D0627047A64928
:101C5000C8647047A149C8717047014600209F4A77
:101C6000506820F003000843506070479B4840686C
:101C700000F00C00704701460020984A506820F0A0
:101C8000F00008435060704701460020934A5068B6
:101C900020F4E060084350607047014600208F4AFE
:101CA000506820F4605040EAC100506070478B4992
:101CB000496821F44041894A51601146496801430D
:101CC000516070478549496821F07841834A5160E5
:101CD000114649680143516070478049096B21F002
:101CE00040017E4A11631146096B0143116370473D
:101CF0000021010F31B9794A126B22F01002774BA3
:101D00001A6305E0754A126B22F02002734B1A63C6
:101D1000724A126B0243714B1A6370470021010F24
:101D2000012904D0022909D0032915D10DE06B4AFD
:101D3000126B22F00302694B1A630EE0674A126BC2
:101D400022F44032654B1A6307E0644A126B22F4B6
:101D50004022624B1A6300E000BF00BF5F4A126B73
:101D600002435E4B1A63704761490860704770B563
:101D700000210023002400250022584E766806F03A
:101D80000C0121B1042905D0082921D105E0594EC3
:101D9000066020E0574E06601DE0504E766806F45F
:101DA00070134E4E766806F48034022606EB934399
:101DB0001CB9514E5E43066009E0484EF66A06F0D3
:101DC0000F06751C4B4EB6FBF5F65E43066002E04F
:101DD000484E066000BF00BF404E766806F0F00136
:101DE0000909464E725C0668D64046603B4E7668EE
:101DF00006F4E061090A414E725C4668D64086608E
:101E0000364E766806F46051C90A3C4E725C4668EC
:101E1000D640C660314E766806F44041890B384E94
:101E2000725CC668B6FBF2F606612C4E766806F068
:101E30007841C1F3C361334E725C0668B6FBF2F6BB
:101E40004661264E366B06F04006402E03D048F21F
:101E50001206866102E04FF4004686611F4E366B23
:101E600006F01006102E02D0224EC66101E0066870
:101E7000C6611A4E366B06F02006202E02D01D4E8B
:101E8000066201E006680662144E366B16F0030F18
:101E900002D1C668466219E0104E366B06F00306A2
:101EA000012E02D10668466210E00C4E366B06F039
:101EB0000306022E02D1B603466207E0074E366BD8
:101EC00006F00306032E01D10A4E4662034E366B1E
:101ED00016F4403F18D18668866233E00010024055
:101EE000FFFFF6FE8C0FFF0F0000424280044242CB
:101EF000D800424200127A0000093D00380000205C
:101F0000480000204C000020604E366B06F440363E
:101F1000B6F5803F02D10668866213E05B4E366BF1
:101F200006F44036B6F5003F03D14FF40046866212
:101F300008E0564E366B06F44036B6F5403F01D108
:101F4000534E8662514E366B16F4402F02D186688E
:101F5000C6621DE04D4E366B06F44026B6F5802F66
:101F600002D10668C66213E0484E366B06F440267E
:101F7000B6F5002F03D14FF40046C66208E0434E89
:101F8000366B06F44026B6F5402F01D1404EC662AE
:101F900070BD3E49096A01433C4A116270473D49A0
:101FA000086070473B49091D0860704729B1374AEE
:101FB00052690243354B5A6104E0344A5269824304
:101FC000324B5A61704729B1304A926902432F4B14
:101FD0009A6104E02D4A926982432C4B9A617047C2
:101FE00029B12A4AD2690243284BDA6104E0274A20
:101FF000D2698243254BDA61704729B1234A926A3C
:102000000243224B9A6204E0204A926A82431F4BA9
:102010009A62704729B11D4AD26802431B4BDA60AD
:1020200004E01A4AD2688243184BDA60704729B13B
:10203000164A12690243154B1A6104E0134A1269E9
:102040008243124B1A61704729B1104A527A0243F7
:102050000E4B5A7204E00D4A527A82430B4B5A726D
:1020600070470A48406A40F08070084948627047EB
:1020700001460020054A92680A4201D0012000E092
:10208000002070470149887270470000001002402C
:1020900000127A003C04424210B50446F8488442DB
:1020A00009D101218803FFF7B5FF00214FF48040DB
:1020B000FFF7B0FF18E0F348844209D1012148043A
:1020C000FFF7B5FF00214FF40030FFF7B0FF0BE042
:1020D000ED48844208D101218804FFF7A8FF0021C0
:1020E0004FF48020FFF7A3FF10BD2DE9F0418CB025
:1020F00004460D460027B8460026206820F001005F
:102100002060666826F44056A86806436660266824
:1021100041F20C608643E96868680843296908430E
:1021200006432660A66826F4407668690643A660E2
:102130006846FFF71CFED248844202D1DDF82480B5
:1021400007E0D048844202D1DDF8288001E0DDF8C4
:102150002C80206810F4004F0CD04FEA480029680A
:10216000B0FBF1F74FEA48002968B0FBF1F201FB40
:10217000120607E02868B8FBF0F72868B8FBF0F112
:1021800000FB11862868B6EB500F00D37F1C206837
:1021900010F4004F07D0C7F342064FF6F07107EA7C
:1021A000010040EA0607A7810CB0BDE8F0814FF4BA
:1021B00016510160002141608160C1600C21016104
:1021C00000214161704710B50022426822F470621C
:1021D000D1E9003423438C682343CC6823431A435A
:1021E000426010BD0021016041608160C1607047A4
:1021F00021B1026842F00102026003E0026822F0AD
:102200000102026070471AB103680B43036002E0E9
:1022100003688B430360704721B1026842F40042B7
:10222000026003E0026822F400420260704721B1BC
:10223000826842F40062826003E0826822F40062F5
:102240008260704721B1426842F40022426003E09C
:10225000426822F400224260704721B1426842F491
:102260008022426003E0426822F48022426070478C
:102270001AB143680B43436002E043688B434360F9
:10228000704721B1426842F40042426003E0426874
:1022900022F400424260704721B1426842F40002D9
:1022A000426003E0426822F40002426070474269E3
:1022B00002F07F42426142690A4342617047028AEA
:1022C00002F47F420282028A0A430282704721B1ED
:1022D000026842F00202026003E0026822F0020299
:1022E00002607047826822F44012826082680A436A
:1022F0008260704721B1426842F48012426003E07C
:10230000426822F4801242607047426822F4C002A0
:10231000426042680A4342607047C1F30802028586
:1023200070470146888CC0F308007047426822F06D
:102330007F424260426842EA01624260704721B1D6
:10234000026842F40052026003E0026822F4005284
:1023500002607047026822F40062026002680A4369
:1023600002607047426822F01002426042680A43ED
:1023700042607047426822F02002426042680A438D
:102380004260704721B1426842F48042426003E0FB
:10239000426822F480424260704721B1826842F074
:1023A0000802826003E0826822F0080282607047BF
:1023B000028AD2B20282028A42EA01220282704773
:1023C00021B1826842F02002826003E0826822F03C
:1023D00020028260704721B1826842F01002826060
:1023E00003E0826822F0100282607047826822F463
:1023F00060228260826842EA41428260704742699C
:1024000022F07F424261426942EA016242617047C2
:10241000826822F00402826082680A438260704708
:1024200021B1826842F00202826003E0826822F0F9
:1024300002028260704721B1826842F48042826069
:1024400003E0826822F4804282607047826822F44E
:102450000042826082680A4382607047026822F00C
:1024600078720260026842EA415202607047026874
:1024700022F4F8120260026842EA014202607047E8
:102480000038014000440040004800401AB1836811
:102490000B43836002E083688B43836070478268EC
:1024A00022F40052826082680A4382607047F0B56D
:1024B000034600240026002500201846C1F3072407
:1024C000CEB2012707FA06F5022C01D1001D02E069
:1024D000032C00D108301AB107682F43076002E0CF
:1024E0000768AF430760F0BD1AB1038B0B4303834A
:1024F00002E0038B8B4303837047826822F480528F
:10250000826082680A438260704702460020D36975
:102510000B4201D0012000E00020704701627047AB
:1025200070B502460B460024002100250020C3F3AD
:102530000725D9B2012606FA01F1012D02D116684C
:10254000314006E0022D02D15668314001E0966824
:1025500031401C0C012606FA04F4D669344011B14E
:102560000CB1012000E0002070BD10B50022002356
:102570000A0C012404FA02F3036210BD10B50446EC
:1025800001214802FFF746FD00214FF40070FFF7DC
:1025900041FD10BD30B5024600200023506820F4F4
:1025A00080700C7840EA042050609068F04C204025
:1025B000D1E901542C434D7844EA4504204390600E
:1025C000D06A20F470000C7B641EE4B2234340EA1E
:1025D0000350D06230BD00210170417041608160C4
:1025E00001210173704721B1826842F001028260CB
:1025F00003E0826822F0010282607047816841F046
:10260000040181607047816841F008018160704772
:102610000A4600214168D74B194011434160704779
:102620004162826270470A460021416821F01F0121
:1026300011434160704730B1CF49096841F400014E
:10264000CD4A116005E0CC49096821F40001CA4A6D
:1026500011607047F0B504460D4600200021092D99
:1026600011DDE068A5F10A0606EB4607072606FA23
:1026700007F18843A5F10A0606EB460603FA06F1C0
:102680000843E0600CE0206905EB4507072606FAE1
:1026900007F1884305EB450603FA06F1084320617C
:1026A000072A0FDA606B561E06EB86071F2606FA0E
:1026B00007F18843561E06EB860605FA06F1084325
:1026C000606322E00D2A0FDA206BD61F06EB860727
:1026D0001F2606FA07F18843D61F06EB860605FA81
:1026E00006F10843206310E0E06AA2F10D0606EB54
:1026F00086071F2606FA07F18843A2F10D0606EBAE
:10270000860605FA06F10843E062F0BD21B1826851
:1027100042F48012826003E0826822F480128260B8
:102720007047816841F4A001816070470146002034
:102730008A6812F4800F01D0012000E00020704769
:1027400021B1826842F00202826003E0826822F0D6
:1027500002028260704710B50A46002100234168DA
:1027600021F46041531E41EA4331416010BD21B163
:10277000426842F40062426003E0426822F4006270
:10278000426070470146C86C80B2704721B18268D0
:1027900042F48072826003E0826822F48072826078
:1027A0007047F0B50446154600200022002609298E
:1027B00011DDE068A1F10A0707EB470C072707FACC
:1027C0000CF29043A1F10A0707EB470703FA07F25F
:1027D0001043E0600CE0206901EB410C072707FA89
:1027E0000CF2904301EB410703FA07F2104320611A
:1027F000A06BC0F30156EF1C06F1010CA7EB0C0710
:1028000007EB870C1F2707FA0CF29043EF1C06F129
:10281000010CA7EB0C0707EB870701FA07F210433F
:10282000A063F0BD10B50A4600210023816B21F49E
:102830004011531E41EA0351816310BD08B50023C6
:1028400000930090009B0B440093009B1A6008BD0E
:102850000A460021816821F4E041114381607047FC
:1028600021B1826842F40042826003E0826822F46F
:1028700000428260704721B1826842F40212826095
:1028800003E0826822F40212826070470146002051
:102890008A6812F4001F01D0012000E00020704778
:1028A00021B1426842F48062426003E0426822F44F
:1028B00080624260704721B1426842F480524260B7
:1028C00003E0426822F480524260704708B5024635
:1028D00000200090009201F12800009B1844009015
:1028E0000098006880B208BD10B50023CBB21AB1C1
:1028F00044681C43446002E044689C43446010BD4B
:102900000246002013680B4201D0012000E00020A5
:102910007047CA430260704770B50246002000232A
:1029200000240B125568CEB205EA060415681D4254
:1029300002D00CB1012000E0002070BD00220A127C
:10294000D34303607047014600208A6812F0040FE9
:1029500001D0012000E000207047014600208A6875
:1029600012F0080F01D0012000E0002070470000A5
:10297000FDF7F1FFFFFD3FFF0824014001684FF61E
:10298000FE72114001600021016041608160C16000
:102990008C49884208D18B490839496841F00F01B8
:1029A000884A083A51608AE086491431884208D141
:1029B00084490839496841F0F001824A083A516077
:1029C0007DE080492831884208D17E49083949682C
:1029D00041F470617B4A083A516070E079493C31BA
:1029E000884208D177490839496841F47041754AED
:1029F000083A516063E073495031884208D1714907
:102A00000839496841F470216E4A083A516056E02D
:102A10006C496431884208D16A490839496841F4EF
:102A20007001684A083A516049E066497831884245
:102A300008D164490839496841F07061614A083A2F
:102A400051603CE06049884206D1011F096841F0AD
:102A50000F01021F116032E05B491431884208D136
:102A60005949091F096841F0F001574A121F1160C6
:102A700025E055492831884208D15349091F096882
:102A800041F47061504A121F116018E04E493C3108
:102A9000884208D14C49091F096841F470414A4AEB
:102AA000121F11600BE048495031884207D1464956
:102AB000091F096841F47021434A121F11607047D1
:102AC00010B50022026847F6F0739A430C6A8B68CF
:102AD00023430C6923434C6923438C692343CC690A
:102AE00023434C6A23438C6A23431A4302608B8935
:102AF00043600B6883604B68C36010BD00210160B8
:102B0000416081608181016141618161C1610162D6
:102B100041628162704721B1026842F001020260A5
:102B200004E002684FF6FE731A400260704741608D
:102B300070470146486880B270471AB103680B437A
:102B4000036002E003688B43036070470146002086
:102B5000002211F0805F03D01B4B083B1A6802E093
:102B6000184B083B1A680A4201D0012000E00020FF
:102B7000704710F0805F03D01349091F086002E01E
:102B8000104908394860704701460020002211F0C2
:102B9000805F03D00C4B083B1A6802E0094B083BEE
:102BA0001A680A4201D0012000E00020704710F0AE
:102BB000805F03D00449091F086002E00149083919
:102BC00048607047080002400804024010B50446FF
:102BD000B648844209D101210806FFF71BFA0021FB
:102BE0004FF08070FFF716FA15E0B148844209D122
:102BF00001214806FFF70EFA00214FF00070FFF7A1
:102C000009FA08E001218806FFF704FA00214FF0D5
:102C10008060FFF7FFF910BD10B500224268A54B98
:102C20001A400B799B054C7943EA04630C6804F461
:102C3000702423431A43426010BD0121016000212A
:102C400001714171704730B5002300F1200303EB9F
:102C50008103D2E900452C4395682C43D5682C4369
:102C60001C6030BD0021016041608160C16070471F
:102C700030B50023904CA14207D00B0C046C9D0092
:102C800002FA05F52C43046400E0426430BD21B132
:102C9000426842F00102426003E0426822F0010211
:102CA0004260704721B1026842F00042026003E0D6
:102CB000026822F000420260704721B1426842F08F
:102CC0008072426003E0426822F080724260704786
:102CD0000146764A106820F440700843106070473F
:102CE0000A46416821F0060111434160704741687E
:102CF00041F01001416070470A46416821F470219B
:102D0000130C1B0419434160704721B1426842F41F
:102D10008002426003E0426822F480024260704711
:102D2000416841F40001416070470146486E00B2BD
:102D3000704721B1026842F40042026003E0026879
:102D400022F40042026070475848406F704757486D
:102D5000C06F7047416841F40041416070478AB2DA
:102D60004261704721B1426842F04002426003E094
:102D7000426822F040024260704721B1426842F04E
:102D80002002426003E0426822F020024260704765
:102D90000A460021416821F4706111434160704787
:102DA0000A460021416821F4C04111434160704747
:102DB000014600200A6E100C0122824042EA0040C7
:102DC000704730B502460B460021116E3B4800EAC1
:102DD00011200D0E0124AC402043186008B230BD14
:102DE00021B1026842F48042026003E0026822F4EA
:102DF0008042026070472D48006F70472B48806FFB
:102E0000704721B1026842F48052026003E0026818
:102E100022F480520260704721B1026842F40062DD
:102E2000026003E0026822F400620260704721B190
:102E3000026842F48062026003E0026822F4806269
:102E4000026070471AB103680B43036002E0036835
:102E50008B43036070471AB103680B43036002E0C1
:102E600003688B43036070470246002093680B425F
:102E700001D0012000E000207047C2680A43C26010
:102E8000704730B50246002000230024956805EA0B
:102E90000103156805EA010413B10CB1012000E03B
:102EA000002030BDC2680A43C26070470060014024
:102EB00000640140FFFF30FE000108000000FFFF3A
:102EC00010B50446B4F1804F08D101210846FFF740
:102ED000AEF800210120FFF7AAF89EE0F7488442EF
:102EE00008D101210220FFF7A2F800210220FFF7FC
:102EF0009EF892E0F248844208D101210420FFF7B5
:102F000096F800210420FFF792F886E0ED4884420D
:102F100008D101210820FFF78AF800210820FFF7D7
:102F200086F87AE0E848844208D101211020FFF7B2
:102F30007EF800211020FFF77AF86EE0E348844223
:102F400008D101212020FFF772F800212020FFF78F
:102F50006EF862E0DE48844208D101214020FFF78C
:102F600066F800214020FFF762F856E0D948844215
:102F700008D101218020FFF75AF800218020FFF7B7
:102F800056F84AE0D448844208D101218015FFF761
:102F90004EF80021A015FFF74AF83EE0CF488442E2
:102FA00009D101210804FFF735F800214FF48030E2
:102FB000FFF730F831E0CA48844209D101214804C2
:102FC000FFF728F800214FF40030FFF723F824E042
:102FD000C448844209D101218804FFF71BF800216D
:102FE0004FF48020FFF716F817E0BF48844208D15D
:102FF00001214015FFF71BF800216015FFF717F8B6
:103000000BE0BA48844208D10121C804FFF702F856
:1030100000214FF40020FEF7FDFF10BD00220288C2
:10302000B0F1804F0BD0A54B984208D0A44B9842EA
:1030300005D0A44B984202D0AC4B984204D14FF635
:103040008F731A404B881A439F4B98420AD09F4B6C
:10305000984207D0A44B984204D04FF6FF431A4041
:103060000B891A4302804B68C3620B8803859B4B14
:10307000984205D09A4B984202D09A4B984201D17F
:103080008B7A03860123838270474FF0FF314160C2
:103090000021018001814180817270470185828217
:1030A00070470A46002101884FF68F73194011437B
:1030B0000180704741627047C16270470146486AAB
:1030C00070470146088D704721B1028842F0020224
:1030D000028004E002884FF6FD731A4002807047B8
:1030E00021B1028842F00402028004E002884FF617
:1030F000FB731A400280704721B1028842F08002BF
:10310000028004E002884FF67F731A400280704705
:1031100002884FF6F7731A40028002880A43028041
:10312000704702884FF6FF431A40028002880A4324
:103130000280704721B1028842F00102028004E05F
:1031400002884FF6FE731A40028070470A884B8847
:103150001A438B881A43CB881A430B891A434B892D
:103160001A438B891A43B0F844301A43A0F844201C
:1031700070470021018041808180C18001814181AF
:103180008181704731B1B0F8442042F40042A0F888
:10319000442005E0B0F84420C2F30E02A0F8442019
:1031A000704770B5002400220023058C4FF6FE7690
:1031B00035400584028C8388048B4FF68F752C4034
:1031C000B51E2C400D882C43751E2A408D892A433C
:1031D0004D882A43414DA84205D0414DA84202D016
:1031E000404DA84213D14FF6F7752A40CD892A43A6
:1031F0004FF6FB752A408D882A434FF6FF652B401A
:103200004FF6FF552B400D8A2B434D8A2B4383806D
:1032100004838D684563028470BD70B5002200236D
:103220000024058C4FF6EF7635400584038C8488A6
:10323000028B48F6FF752A404FF6FF452A400D885D
:103240004FF6FF7606EA05252A434FF6DF752B4039
:103250008D8906EA05152B434D8806EA05152B4393
:10326000848002838D688563038470BD70B50022FD
:1032700000230024058C4FF6FF6635400584038C3F
:103280008488828B4FF68F752A404FF6FC752A4052
:103290000D882A434FF6FF552B408D894FF6FF7658
:1032A00006EA05252B434D8806EA05252B43848035
:1032B00082838D68C563038470BD000000040040F4
:1032C00000080040000C00400010004000140040C6
:1032D00000180040001C0040002000400040014059
:1032E0000044014000480140009C0040005C014057
:1032F00070B5002200230024058C4EF6FF76354081
:103300000584038C8488828B48F6FF752A404FF62B
:10331000FF452A400D884FF6FF7606EA05252A4329
:103320004DF6FF752B408D8906EA05352B434D88F8
:1033300006EA05352B43848082838D680564038407
:1033400070BD002101804180818081608181C181C7
:1033500001824182704770B5034600200024184660
:10336000183001258D40ACB21D8CA5431D8409B1D8
:10337000082909D100EB6100056825F0700505609A
:103380000568154305600EE00D1FC5F34E05284482
:10339000056825F4E045056005684FF6FF7606EA06
:1033A00002263543056070BD4163704781637047F5
:1033B000C1637047016470470A460021018B4FF6D4
:1033C0008F7319401143018370470A460021018B16
:1033D00048F6FF7319404FF6FF7303EA02231943BF
:1033E000018370470A460021818B4FF68F73194085
:1033F0001143818370470A460021818B48F6FF7391
:1034000019404FF6FF7303EA022319438183704783
:1034100021B1828842F00102828004E082884FF666
:10342000FE731A40828070470A460021018B4FF6D6
:10343000F77319401143018370470A460021018B3D
:103440004FF2FF7319404FF6FF7303EA022319434B
:10345000018370470A460021818B4FF6F7731940AC
:103460001143818370470A460021818B4FF2FF731D
:1034700019404FF6FF7303EA022319438183704713
:103480000A460021018B4FF6FB731940114301835B
:1034900070470A460021018B4FF6FF3319404FF663
:1034A000FF7303EA02231943018370470A46002190
:1034B000818B4FF6FB7319401143818370470A4695
:1034C0000021818B4FF6FF3319404FF6FF7303EA5B
:1034D00002231943818370470A460021018B4FF66E
:1034E0007F7319401143018370470A460021018B05
:1034F000C1F30E014FF6FF7303EA02231943018360
:1035000070470A460021818B4FF67F7319401143A3
:10351000818370470A460021818BC1F30E014FF66B
:10352000FF7303EA02231943818370470A4600218F
:10353000018C4FF6FD7319401143018470470A4610
:103540000021018C4FF6F773194011430184704735
:103550000A460021018C4FF6DF7319404FF6FF73C6
:1035600003EA02131943018470470A460021018CC3
:103570004FF6FF5319404FF6FF7303EA0223194336
:10358000018470470A460021018C4DF6FF731940F3
:103590004FF6FF7303EA023319430184704702892F
:1035A0004FF6F7731A40028102890A43028170477D
:1035B00030B5002301248C40A3B2048C9C430484C6
:1035C000048C02FA01F5ADB22C43048430BD30B551
:1035D000002304248C40A3B2048C9C430484048CF8
:1035E00002FA01F5ADB22C43048430BD21B18288CA
:1035F00042F00402828004E082884FF6FB731A4096
:1036000082807047828B4FF2FF331A408283828B15
:103610004FF6FF7303EA01231A4382837047F0B524
:103620000C461546002100220026078C4EF6FF7C32
:1036300007EA0C070784818B028C4FF6FF7707EAB5
:10364000043640F6FF4739404FF6FF7707EA052773
:1036500039434FF6FF7707EA0337394347F6FF57F9
:103660003A4046F480573A4381830284F0BD828B0E
:103670004FF6F3731A408283828B0A43828370472A
:10368000F0B50C461546002100220026078C4FF6A7
:10369000FF6C07EA0C070784818B028C4FF6FF77DB
:1036A00007EA04264FF60C7739404FF6FF7707EA12
:1036B00003172F4339434FF2FF573A4046F48077C0
:1036C0003A4381830284F0BD028B4FF2FF331A40EC
:1036D0000283028B4FF6FF7303EA01231A4302832E
:1036E0007047F0B50C461546002100220026078CD5
:1036F0004FF6EF7C07EA0C070784018B028C4FF62C
:10370000FF7707EA041640F6FF4739404FF6FF7788
:1037100007EA033739434FF6FF7707EA05273943AE
:103720004FF65F773A4046F010073A430183028430
:10373000F0BD028B4FF6F3731A400283028B0A43EB
:1037400002837047F0B50C46154600210022068C16
:103750004FF6FE773E400684018B028C4FF60C76C6
:1037600031407E1C06EA03162E4331434FF6F576B0
:10377000324044F00106324301830284F0BD70B54B
:1037800005460C46208850B92389A28861882846BE
:10379000FFF7D8FFE1882846FFF7CBFF25E0208818
:1037A00004280AD12389A28861882846FFF799FF57
:1037B000E1882846FFF788FF17E0208808280AD10B
:1037C0002389A28861882846FFF75AFFE1882846A6
:1037D000FFF74DFF09E02389A28861882846FFF79B
:1037E0001EFFE1882846FFF70DFF70BD0021018014
:1037F0004180012181800021C180018170472DE934
:10380000F04105460C4600260127608808B90226CB
:1038100000E00026A088012801D1022700E001274E
:103820002088A0B92389A28861882846FFF78AFFEB
:10383000E1882846FFF77DFF23893A46314628462E
:10384000FFF74FFFE1882846FFF73EFF13E023898B
:10385000A28861882846FFF744FFE1882846FFF7E1
:1038600033FF23893A4631462846FFF76BFFE1884C
:103870002846FFF75EFFBDE8F0810146486B7047C0
:103880000146886B70470146C86B70470146086C5B
:1038900070471AB183890B43838102E083898B438C
:1038A000838170478182704702460020138A0B4251
:1038B00001D0012000E000207047CA430282704717
:1038C00030B50246002000230024158A05EA0103D2
:1038D000958905EA010413B10CB1012000E0002034
:1038E00030BDCA430282704741EA0203A0F8483063
:1038F00070471AB183890B43838102E083898B432C
:103900008381704721B1828842F00802828004E0FE
:1039100082884FF6F7731A408280704701894FF60C
:10392000F8721140018170470A46002101894FF663
:103930008F73194011430181704730B504460D461D
:1039400029462046FFF7F0FF208940F0070020813C
:1039500030BD2DE9F04104460D4616461F46602D48
:1039600006D13B46012231462046FFF7BAFE05E06C
:103970003B46012231462046FFF7E4FE2946204619
:10398000FFF7D2FF208940F007002081BDE8F081D9
:1039900030B50C4600210189C9B24FF6FF7505EA22
:1039A0000325154325432943018130BD2DE9F0410D
:1039B00005460E4617469846002443463A46314689
:1039C0002846FFF7E5FF2C894FF6F870044044F0D5
:1039D00007044FF68F70044044F070042C81BDE85A
:1039E000F081F0B504460D4616461F463B4632466A
:1039F00029462046FFF7CCFF208940F480402081F3
:103A0000F0BD82884FF68F731A40828082880A4305
:103A10008280704702894FF6F8731A40028102894A
:103A20000A430281704702894FF67F731A40028170
:103A300002890A4302817047F0B50C4615461E46BE
:103A40000021002200230189028B038C4FF6F877B6
:103A5000394021434FF6FC473A4040F201173A43C0
:103A60004FF6DD773B404FF6FF7707EA06172F4307
:103A70003B43018102830384F0BD21B1828842F07F
:103A80008002828004E082884FF67F731A40828031
:103A90007047A0F85010704731490143314A116016
:103AA000704770B5002100230F22C4780CB32D4C51
:103AB000246804F4E064C4F5E064210AC1F104035D
:103AC000CA40447804FA03F1847814402143090180
:103AD000254C0678A155047804F01F050124AC405C
:103AE00005786D114FF0E02606EB8505C5F800411D
:103AF00009E0047804F01F050124AC401B4D067852
:103B0000761145F8264070BD194A0A400243154B0C
:103B10001B1F1A60704739B1124A121D1268024306
:103B2000104B1B1D1A6006E00E4A121D12688243DC
:103B30000C4B1B1D1A607047042808D14FF0E02180
:103B4000096941F004014FF0E022116107E04FF0F4
:103B5000E021096921F004014FF0E0221161704772
:103B60000000FA050CED00E000E400E080E100E078
:103B700080FFFF1F10B501210807FEF758FA00214A
:103B80004FF08050FEF753FA10BD3B490862704772
:103B900001460020394A106820F0E0000843106018
:103BA000704735490861704729B1344A5268024369
:103BB000324B5A6004E0314A526882432F4B5A60BC
:103BC000704729B12D4A126802432C4B1A6004E059
:103BD0002A4A12688243294B1A60704728490968AB
:103BE00021F00401264A1160012801D130BF00E014
:103BF00020BF704710B502460020204B186820F007
:103C00000300104318601E4B1B6843F004031C4C58
:103C10002360012901D130BF00E020BF184B1B6891
:103C200023F00403164C236010BD1448006840F0D4
:103C30000400124908600846006840F0020008606D
:103C40000F48006840F004000D49086000BF00BF45
:103C500030BF704701460020084A52680A4201D02E
:103C6000012000E0002070470449096841EA800112
:103C7000024A11607047000000000E4200700040D0
:103C800010ED00E0D2B201E000F8012B491EFBD29A
:103C900070470022F6E710B513460A460446194657
:103CA000FFF7F0FF204610BD2DE9FE4F804681EA68
:103CB0000300C00F0C46009021F0004123F00045A6
:103CC000B8EB0200A94105D24046214690461C4669
:103CD0000B46024623F00040104304D140462146E3
:103CE00003B0BDE8F08F270DC7F30A00C3F30A51F4
:103CF0000290401A0190402866DAC3F3130040F4A2
:103D0000801B0098924620B10023D2EB030A63EB9C
:103D10000B0B01985946C0F14002504600F083F960
:103D200006460D4650465946019A00F09BF910EBA5
:103D300008006141002487EA115284EAE7731A43BC
:103D40003BD0009A3AB3019A012A4FEA075210DC9D
:103D5000001B61EB02014FF0004202EA0752CDE97D
:103D60000042001C41F5801132462B4600F0CFF98D
:103D7000B6E7001B61EB0201001C41F5801300183F
:103D80005B412018A2F5001747EB030140EAD5700C
:103D9000B6196D4111E06D084FEA360645EAC07567
:103DA0004FEA0752001B61EB0201001C41F5801134
:103DB00049084FEA30000019514132462B4603B002
:103DC000BDE8F04F00F096B90098012240000023B2
:103DD000D0EB020263EBE073009821464FEAE074F7
:103DE000B8EB000061EB0401E9E783F000435BE717
:103DF00081F0004158E72DE9FE4F81EA030404F009
:103E0000004421F0004100944FF0000B23F00043E8
:103E100050EA010402D052EA030404D10020014612
:103E200003B0BDE8F08FC3F30A54C1F30A552C4424
:103E3000A4F2F3340194A0FB0254C1F3130141F442
:103E40008011C3F3130343F4801301FB024400FB0E
:103E5000034E840A970A44EA815447EA8357A4FB35
:103E6000076802958D0A05FB07854FEA932C04FB32
:103E70000C542705029D4FEA065847EA1637B5EB62
:103E800008056EEB070C870E920E47EA811742EA8F
:103E90008312A7FB0201B6EB0B0164EB00042B0DB0
:103EA00043EA0C335E1844EB1C50DA465146E7FBFC
:103EB0000201C5F313044FEA0B3343EA14534FEAEC
:103EC0000432019C43EA0603A4F10C040294009C12
:103ED000CDE900B400F01BF9A2E70EB5C10F80EAEE
:103EE000E0700844CA07002140F233438DE80E0019
:103EF0000A460B4600F00BF903B000BD70B5C1F3E4
:103F00000A5201F000450024C1F3130140F2FF33CF
:103F100041F480119A4201DA002070BD40F233432F
:103F20009A42A2F2334203DC524200F08BF800E0E6
:103F300090402C43F1D0404270BD00F0004230F080
:103F400000400AD0C10D01F56071C0F3160042EACD
:103F50000151C208400711437047002001467047D5
:103F600001F0004330B421F0004150EA010206D0D4
:103F70000A0DA2F56072C1F31301002A02DC30BC05
:103F800000207047440F44EAC104C100E01830BC6F
:103F900000EBC25000F078B830B50B460146002067
:103FA0002022012409E021FA02F59D4205D303FAFB
:103FB00002F5491B04FA02F52844151EA2F101027C
:103FC000F1DC30BD2DE9F05F0546002092469B46AE
:103FD00088460646814640241BE02846414647461F
:103FE000224600F02FF853465A46C01A914110D38A
:103FF00011461846224600F016F82D1A67EB010804
:104000004F4622460120002100F00DF817EB000971
:104010004E41201EA4F10104DFDC484631462A4609
:104020004346BDE8F09F202A04DB203A00FA02F163
:10403000002070479140C2F1200320FA03F3194396
:1040400090407047202A04DB203A21FA02F0002138
:10405000704721FA02F3D040C2F120029140084398
:1040600019467047202A06DBCB17203A41FA02F0A6
:1040700043EAE07306E041FA02F3D040C2F12002C5
:1040800091400843194670470029A8BF7047401C5B
:10409000490008BF20F00100704710B4B0FA80FC5E
:1040A00000FA0CF050EA010404BF10BC704749B19B
:1040B000CCF1200421FA04F411FA0CF118BF01210B
:1040C00021430843A3EB0C01CB1D0106000A002B82
:1040D000BEBF002010BC704700EBC3501044002945
:1040E000A4BF10BC7047401C490008BF20F001006D
:1040F00010BC704710B5002B08DA401C41F10001DC
:1041000092185B411A4301D120F0010010BD2DE946
:10411000F04D92469B4611B1B1FA81F202E0B0FA3D
:1041200080F220329046FFF77EFF04460F4640EAB9
:104130000A0041EA0B0153465A46084303D1204680
:104140003946BDE8F08D114653EA010015D0C8F19B
:1041500040025046FFF776FF05460E465046594648
:104160004246FFF760FF084301D0012000E0002035
:10417000054346EAE0762C4337430A984FEA445316
:10418000A0EB08004FEAD4240A304FF0000244EAC2
:1041900047544FEAD72502D500200146D1E7010553
:1041A00010196941DDE9084500196941BDE8F04D84
:1041B000A0E72DE9F04D81EA030404F0004B21F063
:1041C000004514464FF0000A23F0004150EA050272
:1041D00020D054EA01021DD0C5F30A570246C5F3A8
:1041E0001303C1F31300C1F30A5640F4801543F4DE
:1041F0008013A7EB0608101BD64608F2FD3873EBB8
:10420000050002D308F1010801E092185B41B8F102
:10421000000F03DA00200146BDE8F08D00204FF4C6
:104220008011064684460EE0171B73EB050705D385
:10423000121B63EB050306434CEA010C49084FEAE5
:10424000300092185B4150EA0107EDD152EA0300B9
:1042500012D082EA040083EA0501084303D1002258
:104260004FF0004308E0101BAB4102D201220023B3
:1042700002E06FF0010253101AEB06004CEB0851FC
:1042800010EB0A0041EB0B01BDE8F04DFFF732BF28
:10429000C1F30A52C1F3130140F2FF3341F480111C
:1042A0009A4202DA00200146704740F233439A42B4
:1042B000A2F2334202DC5242FFF7C4BEFFF7B3BEA4
:1042C00030B5002904DB4FF00044404264EB0101AB
:1042D000002B04DB4FF00044524264EB030399428D
:1042E00008BF904230BD0000064C074D06E0E06874
:1042F00040F0010394E8070098471034AC42F6D32D
:10430000FBF746FFF04B0008104C00080FB4054BBC
:1043100010B503A9044A029800F0C6F810BC5DF875
:1043200014FB0000AD0600085C00002002E008C895
:10433000121F08C1002AFAD170477047002001E01F
:1043400001C1121F002AFBD1704700002DE9FF5F59
:10435000DDE90220010DDDF838B0024310D10F98DD
:1043600001244CA2012808D0002100980F9BC0E92D
:104370000021C0E90243BDE8FF9F6FEA0B01F4E7AB
:10438000A1F2FF3144F6105041430D140F9801285B
:104390000ED0A5EB0B00401C4FF000043E4EDFF8A2
:1043A000FC90B0F1000AA04605DACAF1000717E058
:1043B000CBF10000F0E7074612E0F80707D02246ED
:1043C000334640464946FFF716FD80468946224659
:1043D000334610461946FFF70EFD04460E467F1081
:1043E000002FEAD1DDE90201BAF1000F42464B4647
:1043F00002DAFFF700FD01E0FFF7DBFE04460E46A0
:104400000022274BFFF75CFF03D84FF0FF30014637
:1044100007E00022234B20463146FFF745FCFFF71B
:1044200037FF102409E0002C0ADB0A220023FFF7E3
:10443000C9FD019B30321A55641E50EA0102F2D1C7
:10444000641C019AC4F1110314440F9A012A09D083
:104450000122084301D15B450FDD4FF0000205F159
:1044600001050DE0084303D1A3EB0B056D1E09E028
:1044700000204FF0110B0F9088E701DA00226D1E2B
:10448000002A83D000980F99C0E90231C0E90045A5
:1044900071E7000030000000000024400000F03F01
:1044A0000000F0430000E03F2DE9FF4F95B09B4630
:1044B00089460646002512E2252878D10024761C7C
:1044C000F94A2746012105943378203B01FA03F08D
:1044D000104202D00443761CF6E730782A2811D027
:1044E0006FF02F033078A0F13002092A16D8059A10
:1044F00044F0020402EB820203EB42021044761CF9
:104500000590EFE759F8042B0592002A03DA504290
:1045100044F40054059044F00204761C30782E28B0
:1045200016D116F8010F44F004042A280DD06FF0BC
:104530002F023078A0F13003092B09D807EB87034D
:1045400002EB4303C718761CF3E759F8047B761C8B
:1045500030786C280FD006DC4C2817D068280DD096
:104560006A2814D104E0742810D07A280FD10DE005
:1045700044F400140AE044F4801401E044F44014CC
:104580007278824202D1761C04F58014761C307851
:1045900066280BD013DC582877D009DC002875D0AA
:1045A0004528F6D04628F4D047281AD19FE118E0D4
:1045B000632835D0642879D0652812D197E1702816
:1045C00073D008DC6728F1D069286FD06E280DD031
:1045D0006F2806D1B5E073282CD0752875D07828BF
:1045E00074D05A46179990476D1C76E1C4F3025077
:1045F000022809D003280DD0D9F8001004280DD0C6
:104600000D6009F1040968E1D9F80010EA17C1E961
:104610000052F6E7D9F800100D80F2E70D70F0E7D0
:1046200019F8041B8DF8001000208DF80100EA46EF
:10463000012003E059F804AB4FF0FF3061074FF061
:10464000000102D40DE008F101018846B9420FDAF9
:104650008045F8DB1AF808100029F4D108E008F1C9
:10466000010188468142FADB1AF808100029F6D1C8
:1046700005985B46A0EB080721463846179A00F0DC
:104680009EFA284400EB080507E04DE02BE10DE021
:104690001AF8010B5A4617999047B8F10108F7D25A
:1046A0005B4621463846179A14E142E00A220092FE
:1046B000C4F302524FF0000A022A08D059F804CB82
:1046C000032A4FEAEC710AD00DE029E02AE009F153
:1046D000070121F00702F2E802C1914609E00FFA52
:1046E0008CFC4FEAEC71042A03D14FFA8CFC4FEAA0
:1046F000EC71002907DA0A460021DCF1000C61EBBD
:1047000002012D2202E0220504D52B228DF804207F
:10471000012203E0E20701D02022F7E7904653E0B0
:104720000A2102E010220DE010214FF0000A009152
:104730000BE010224FF0000A44F004040827009216
:1047400003E008224FF0000A0092C4F30252022A4A
:1047500005D059F804CB0021032A08D009E009F15B
:10476000070121F00702F2E802C1914605E01FFAB5
:104770008CFC042A01D10CF0FF0C4FF0000822073A
:1047800022D5702827D0009B83F0100353EA0A0338
:1047900009D15CEA010206D030228DF804208DF8A0
:1047A000050002229046009B83F0080353EA0A03A7
:1047B0000AD15CEA010201D1620705D530228DF8E9
:1047C00004204FF001087F1E582809D037A003901D
:1047D0000EA8029013E040228DF804200122E1E7A8
:1047E00037A0F4E753466046009AFFF7EBFB844698
:1047F0000398825C0298A0F10100029002705CEACA
:104800000100EFD1029806A9A1EB000000F1200AF7
:10481000600702D524F4803400E00127574502DD0B
:10482000A7EB0A0000E0002000EB0A0100900598C9
:104830004144A0EB01000590E00306D45B4621460D
:10484000179A059800F0BBF90544002706E001A877
:104850005A46C05D179990476D1C7F1C4745F6DB93
:10486000E0030CD55B462146179A059800F0A7F99E
:10487000054404E030205A46179990476D1C009972
:10488000481E00900029F5DC08E0029802995A467B
:104890000078491C0291179990476D1CBAF10001EC
:1048A000AAF1010AF1DC6BE1092801003031323351
:1048B000343536373839616263646566000000005C
:1048C0003031323334353637383941424344454646
:1048D0000000000000F060F9054406F101063078A0
:1048E00000287FF4E9AD19B02846BDE8F08F6207D3
:1048F00000D4062709F1070222F0070CFCE8022386
:10490000E14603F000485FEA080C02D00FF27C2C6D
:104910000DE05FEA045C02D50FF2742C07E05FEA59
:10492000C47C02D00FF26C2C01E0AFF2700C4FF09F
:10493000FF3823F00043CDF850C065280CD006DCCA
:10494000452809D046281DD047283ED13EE066289C
:1049500018D0672839D139E00021112F01DB11204F
:1049600000E0781CCDE9000106A90EA8FFF7EEFCD7
:10497000DDE90F010E9A03910021009207F1010A6F
:1049800004914EE04FF000400097CDE9011006A9D8
:104990000EA8FFF7DBFCDDE90F0203920E9B1199D5
:1049A0000022DDF80CA00093049219B907F101016F
:1049B00000EB010AB7EB0A0004D4C0F1FF3007F1A5
:1049C000010A0490AAEB0700019046E0012F00DAEB
:1049D00001270021112F01DD112000E03846CDE92B
:1049E000000106A90EA8FFF7B1FCDDE90F010E9A40
:1049F0000391002104910092BA4621070CD4039937
:104A0000514500DA8A46BAF1010F05DD009AAAF194
:104A10000101515C302908D0B84202DA10F1040FCC
:104A200006DA0121CDE9011017E0AAF10101E9E759
:104A3000002805DC049901440491AAEB000102E07E
:104A4000411C514500DD8A460499A0EB010000F1AC
:104A5000010001904FF000400290200704D401981B
:104A6000504501DBCDF8048000208DF84F000298FE
:104A70000DF14F07B0F1004F25D02B200E9002987A
:104A80004FF0020800280CDA404202902D200E90D0
:104A900007E00A210298FFF77FFA3031029007F809
:104AA000011DB8F10001A8F10108F2DC029800280C
:104AB000EFD1791E0E980870307800F0200040F099
:104AC000450007F8020D12A8A0EB070000F1070847
:104AD0001498007800B1012000EB0A01019801EB65
:104AE000E07105984144A0EB0100A0F101000590A0
:104AF000E00306D45B462146179A059800F05FF85C
:104B000005441498007820B15A461799904705F14A
:104B10000105E00323D55B462146179A059800F06E
:104B20004EF805441BE00498002807DBDDE903018B
:104B3000884203DD0098405C179901E01799302006
:104B40005A46904704986D1C401C04900198401EE2
:104B5000019004D12E205A46179990476D1CBAF146
:104B60000001AAF1010ADEDC05E017F8010B5A4644
:104B7000179990476D1CB8F10001A8F10108F4DC09
:104B80005B462146179A0598A4E600002D00000018
:104B90002B000000200000002DE9F0410446002514
:104BA0001E461746880405D406E039462020B04743
:104BB00005F10105641EF8D52846BDE8F0812DE910
:104BC000F041044600251E469046C80301D5302713
:104BD00000E02027880405D506E041463846B04766
:104BE00005F10105641EF8D52846BDE8F0810000F6
:104BF000104C000800000020600000002C4300085A
:104C0000704C000860000020800400003C43000855
:104C100000A24A040000000000000000010203049A
:104C2000060708090000000008000000000000005E
:104C3000000000000000102701000000000000003C
:104C400000000000CDCCCC3D0000000001020304B8
:104C50000102030406070809020406080204060804
:104C60000A0C0E1014181C2024282C300000000000
:040000050800018965
:00000001FF
